:0400000063EF00F0BA
:10000800E1CF3FF0E2CF40F0D9CF41F0DACF42F074
:10001800F3CF43F0F4CF44F04FC045F050C046F062
:1000280051C047F052C048F057C049F058C04AF094
:1000380059C04BF05AC04CF015EE92F0F2BAF2A447
:1000480021D068EC19F00001A051A111A211A3114F
:10005800D8B406D0800E336E000E346E88EC11F0E2
:10006800084A092A09BE0ED0095004E1060E085CA8
:10007800D8A008D0000E096E000E086E000EE66EBD
:100088000EEC03F04CC05AF04BC059F04AC058F07F
:1000980049C057F048C052F047C051F046C050F030
:1000A80045C04FF044C0F4FF43C0F3FF42C0DAFF3D
:1000B80041C0D9FF40C0E2FF3FC0E1FF110015EE8B
:0600C80059F03CEF18F0B6
:10060000003D3D3D46494D3D3D3D005069736369A8
:0B0610006E610070483A00433A0000A1
:10061C00E652E652E652E652F29E126FE0CF11F02D
:10062C00D8CF10F0700EE66E000EE66E23EE55F08D
:10063C00DECF50F0DDCF51F050C0E6FF51C0E6FFE9
:10064C0010EC16F02C0E4F24D96E010E5020DA6EE1
:10065C0012C0DFFF700EE66E000EE66E23EE55F054
:10066C00DECF50F0DDCF51F050C0E6FF51C0E6FFB9
:10067C0010EC16F02D0E4F24D96E010E5020DA6EB0
:10068C0011C0DFFF700EE66E000EE66E23EE55F025
:10069C00DECF50F0DDCF51F050C0E6FF51C0E6FF89
:1006AC0010EC16F02E0E4F24D96E010E5020DA6E7F
:1006BC0010C0DFFFCCD0700EE66E000EE66E23EE9F
:1006CC0055F0DECF50F0DDCF51F050C0E6FF51C0F9
:1006DC00E6FF10EC16F023EE55F0DECF59F0DDCF2F
:1006EC005AF0700E5902F3CF57F0F4CF58F05A026B
:1006FC00F3505826900E5724D96E010E5820DA6EFE
:10070C00DF50030D210E596E010E5A6E140E592630
:10071C00000E5A22F3505926F4505A224F505924A5
:10072C00D96E50505A20DA6EDF50FF18E00BFF18CC
:10073C00DF6E700EE66E000EE66E23EE55F0DECF29
:10074C0050F0DDCF51F050C0E6FF51C0E6FF10EC89
:10075C0016F023EE55F0DECF59F0DDCF5AF0700EC7
:10076C005902F3CF57F0F4CF58F05A02F3505826F1
:10077C00900E5724D96E010E5820DA6EDF50030DFF
:10078C00210E596E010E5A6E120E5926000E5A2267
:10079C00F3505926F4505A224F505924D96E5050C8
:1007AC005A20DA6EFDCFDFFF700EE66E000EE66E9D
:1007BC0023EE55F0DECF50F0DDCF51F050C0E6FF08
:1007CC0051C0E6FF10EC16F023EE55F0DECF59F0D9
:1007DC00DDCF5AF0700E5902F3CF57F0F4CF58F02A
:1007EC005A02F3505826900E5724D96E010E5820F9
:1007FC00DA6EDF50030D210E596E010E5A6E130E78
:10080C005926000E5A22F3505926F4505A224F50B2
:10081C005924D96E50505A20DA6EFECFDFFF700E7D
:10082C00E66E000EE66E23EE55F0DECF50F0DDCF17
:10083C0051F050C0E6FF51C0E6FF10EC16F0900EE0
:10084C004F24D96E010E5020DA6EDF2A0600FC50C0
:10085C00D8A431D7700EE66E000EE66E23EE55F07E
:10086C00DECF50F0DDCF51F050C0E6FF51C0E6FFB7
:10087C0010EC16F0290E4F24D96E010E5020DA6EB2
:10088C00FB0EE3CFDFFF0BEC11F0FC0E4FC0E3FFD0
:10089C00FD0E50C0E3FFFE0E51C0E3FFFF0E52C031
:1008AC00E3FFE150FC0FD96EE250DA6EFF0EDA2254
:1008BC00DECF55F3DECF56F3DECF57F3DDCF58F353
:1008CC00700EE66E000EE66EFA0EE3CFE6FFE3CF97
:1008DC00E6FF10EC16F0290E4F24D96E010E5020B5
:1008EC00DA6E010EDF6EFC6A700EE66E000EE66EBE
:1008FC0023EE55F0DECF50F0DDCF51F050C0E6FFC7
:10090C0051C0E6FF10EC16F02C0E4F24D96E010EE0
:10091C005020DA6EDF50126E700EE66E000EE66E30
:10092C0023EE55F0DECF50F0DDCF51F050C0E6FF96
:10093C0051C0E6FF10EC16F02D0E4F24D96E010EAF
:10094C005020DA6EDF50116E700EE66E000EE66E01
:10095C0023EE55F0DECF50F0DDCF51F050C0E6FF66
:10096C0051C0E6FF10EC16F02E0E4F24D96E010E7E
:10097C005020DA6EDF50106ECAD00500700EE66E95
:10098C00000EE66E23EE55F0DECF50F0DDCF51F0C9
:10099C0050C0E6FF51C0E6FF10EC16F0900E4F244D
:1009AC00D96E010E5020DA6EDF06700EE66E000E68
:1009BC00E66E23EE55F0DECF50F0DDCF51F050C097
:1009CC00E6FF51C0E6FF10EC16F023EE55F0DECF3B
:1009DC0059F0DDCF5AF0700E5902F3CF57F0F4CF27
:1009EC0058F05A02F3505826900E5724D96E010E27
:1009FC005820DA6EDF50030D210E596E010E5A6E1F
:100A0C00140E5926000E5A22F3505926F4505A222D
:100A1C004F505924D96E50505A20DA6EDF501F0BAC
:100A2C00FF6E700EE66E000EE66E23EE55F0DECF16
:100A3C0050F0DDCF51F050C0E6FF51C0E6FF10EC96
:100A4C0016F023EE55F0DECF59F0DDCF5AF0700ED4
:100A5C005902F3CF57F0F4CF58F05A02F3505826FE
:100A6C00900E5724D96E010E5820DA6EDF50030D0C
:100A7C00210E596E010E5A6E130E5926000E5A2273
:100A8C00F3505926F4505A224F505924D96E5050D5
:100A9C005A20DA6EDF50FE6E700EE66E000EE66EB9
:100AAC0023EE55F0DECF50F0DDCF51F050C0E6FF15
:100ABC0051C0E6FF10EC16F023EE55F0DECF59F0E6
:100ACC00DDCF5AF0700E5902F3CF57F0F4CF58F037
:100ADC005A02F3505826900E5724D96E010E582006
:100AEC00DA6EDF50030D210E596E010E5A6E120E86
:100AFC005926000E5A22F3505926F4505A224F50C0
:100B0C005924D96E50505A20DA6EDF50FD6E700E9B
:100B1C00E66E000EE66E23EE55F0DECF50F0DDCF24
:100B2C0051F050C0E6FF51C0E6FF10EC16F0900EED
:100B3C004F24D96E010E5020DA6EDF50D8A41DD789
:100B4C0011C0E0FF10C0D8FF1253F28EFB0EE1264D
:100B5C00FF0EE2221200E652E652E6520F0E5A6ED9
:100B6C00FA0EE3CF55F0FB0EE3CF56F0FC0EE3CFBD
:100B7C0057F05A284F6E04D0D8905732563255320F
:100B8C004F2EFAD755505A6EFD0E5AC0E3FF0F0E7A
:100B9C005A6EF70EE3CF55F0F80EE3CF56F0F90E80
:100BAC00E3CF57F05A284F6E04D0D89057325632B4
:100BBC0055324F2EFAD755505A6EFE0E5AC0E3FFDF
:100BCC00FD0EE350D8B418D0E150FD0FD96EE250B1
:100BDC00DA6EFF0EDA22FE0EE350DE5CD8B014D0D3
:100BEC00FD0EE3CF5AF0FE0EE3CF59F05A50595C8C
:100BFC005A6E180E5A6408D0F70EE3CF4FF0F80E69
:100C0C00E3CF50F0F90E23D0FE0EE350D8B418D039
:100C1C00E150FE0FD96EE250DA6EFF0EDA22FD0EB5
:100C2C00E350DE5CD8B016D0FE0EE3CF5AF0FD0ECA
:100C3C00E3CF59F05A50595C5A6E180E5A640AD0C8
:100C4C00FA0EE3CF4FF0FB0EE3CF50F0FC0EE3CFE8
:100C5C0051F002D1FF0EE36AE382E384FC0EE3AEB3
:100C6C0002D0FF0EE38EF90EE3AE02D0FF0EE38C42
:100C7C00FB0EE38EFC0EE36AF80EE38EF90EE36ACC
:100C8C00E150FD0FD96EE250DA6EFF0EDA22FE0E45
:100C9C00E350DE5CD8B035D0D890F70EE336F80EC2
:100CAC00E336F90EE336FE0EE306E150FE0FD96E85
:100CBC00E250DA6EFF0EDA22FD0EE350DE18D8B4E5
:100CCC0013D0FF0EE306FF0EE3CF5AF0070E5A16B1
:100CDC00D8B40AD0E1D7D890FC0EE332FB0EE33245
:100CEC00FA0EE332FD0EE32AE150FD0FD96EE2500D
:100CFC00DA6EFF0EDA22FE0EE350DE18D8B441D0C5
:100D0C00EAD7E150FE0FD96EE250DA6EFF0EDA220E
:100D1C00FD0EE350DE5CD8B034D0D890FA0EE3363A
:100D2C00FB0EE336FC0EE336FD0EE306E150FE0F40
:100D3C00D96EE250DA6EFF0EDA22FD0EE350DE18A9
:100D4C00D8B413D0FF0EE306FF0EE3CF5AF0070E14
:100D5C005A16D8B40AD0E1D7D890F90EE332F80E6F
:100D6C00E332F70EE332FE0EE32AE150FD0FD96EAB
:100D7C00E250DA6EFF0EDA22FE0EE350DE18D8A433
:100D8C00EBD7FF0EE3AE11D0FA0EE31EFB0EE31E03
:100D9C00FC0EE31EE150FA0FD96EE250DA6EFF0E34
:100DAC00DA22DE2A000EDE22DE22FF0EE3AC11D0A8
:100DBC00F70EE31EF80EE31EF90EE31EE150F70FDB
:100DCC00D96EE250DA6EFF0EDA22DE2A000EDE2237
:100DDC00DE22FF0EE36AF70EE3504F6EFA0EE3507D
:100DEC004F26F70E4FC0E3FFF80EE3504F6EFB0E8D
:100DFC00E3504F22F80E4FC0E3FFF90EE3504F6E55
:100E0C00FC0EE3504F22F90E4FC0E3FFF90EE3AE98
:100E1C0014D0F70EE31EF80EE31EF90EE31EE1509C
:100E2C00F70FD96EE250DA6EFF0EDA22DE2A000ED0
:100E3C00DE22DE22FF0EE36AE32AFF0EE350E66EAB
:100E4C00FC0EE350E66EF50EE3CFE6FFE3CFE6FFD4
:100E5C00E3CFE6FF72EC0EF0F70EE126FF0EE22276
:100E6C001200700EE66E000EE66E23EE51F0DECF31
:100E7C001BF1DDCF1CF11BC1E6FF1CC1E6FF10EC22
:100E8C0016F0210E4F24D96E010E5020DA6E11C1CE
:100E9C00DEFF12C1DEFF13C1DEFF14C1DEFF700ED8
:100EAC00E66E000EE66E23EE51F0DECF1BF1DDCFC9
:100EBC001CF11BC1E6FF1CC1E6FF10EC16F0040E82
:100ECC004F26000E5022210E4F24D96E010E5020B9
:100EDC00DA6E15C1DEFF16C1DEFF17C1DEFF18C1C9
:100EEC00DEFF700EE66E000EE66E23EE51F0DECFE6
:100EFC001BF1DDCF1CF11BC1E6FF1CC1E6FF10ECA2
:100F0C0016F0080E4F26000E5022210E4F24D96EDB
:100F1C00010E5020DA6E000EDF6E700EE66E000EC3
:100F2C00E66E23EE51F0DECF1BF1DDCF1CF11BC1C1
:100F3C00E6FF1CC1E6FF10EC16F0090E4F26000E62
:100F4C005022210E4F24D96E010E5020DA6E19C199
:100F5C00DEFF1AC1DDFF700EE66E000EE66E23EEAC
:100F6C0051F0DECF1BF1DDCF1CF11BC1E6FF1CC124
:100F7C00E6FF10EC16F0120E4F26000E5022210E3A
:100F8C004F24D96E010E5020DA6E19C1DFFF700E9E
:100F9C00E66E000EE66E23EE51F0DECF1BF1DDCFD8
:100FAC001CF11BC1E6FF1CC1E6FF10EC16F0130E82
:100FBC004F26000E5022210E4F24D96E010E5020C8
:100FCC00DA6E010119511D6F1A511E6F1F6B206BC8
:100FDC001EC11DF11FC11EF120C11FF1206B1D513F
:100FEC00DF6E19511B6F1A511C6F1D6B1E6B110E8E
:100FFC0005D0D8901E331D331C331B33E82EF9D784
:10100C00700EE66E000EE66E23EE51F0DECF1FF191
:10101C00DDCF20F11FC1E6FF20C1E6FF10EC16F07A
:10102C00140E4F26000E5022210E4F24D96E010EA5
:10103C005020DA6EDF5001011B19E00B1B19DF6E1B
:10104C00700EE66E000EE66E23EE51F0DECF1BF155
:10105C00DDCF1CF11BC1E6FF1CC1E6FF10EC16F046
:10106C006F0E4F26000E5022210E4F24D96E010E0A
:10107C005020DA6E010EDF6E23EE51F0DE2A000EE8
:10108C00DE22DE22DE221200060EE126000EE22215
:10109C000F0E5A6EF70EE3CF55F0F80EE3CF56F065
:1010AC00F90EE3CF57F05A284F6E04D0D890573230
:1010BC00563255324F2EFAD755505A6EFF0E5AC033
:1010CC00E3FFFF0EE350D8B41DD00F0E5A6EF40E92
:1010DC00E3CF55F0F50EE3CF56F0F60EE3CF57F015
:1010EC005A284F6E04D0D8905732563255324F2E64
:1010FC00FAD755505A6EFD0E5AC0E3FFFD0EE35061
:10110C00D8A407D0000E4F6E000E506E000E516E1C
:10111C00C3D07B0E5A6EFD0EE3505A24596EE1502B
:10112C00FF0FD96EE250DA6EFF0EDA225950DF262D
:10113C00F90EE124D96EFF0EE220DA6EDF505A6E02
:10114C00FD0E5AC0E3FFF60EE124D96EFF0EE2202D
:10115C00DA6EDF505A6EE150FD0FD96EE250DA6E46
:10116C00FF0EDA225A50DF1AFD0EE3CF4FF0800E3D
:10117C004F16FD0E4FC0E3FFF80EE38EF50EE38E17
:10118C00F60EE36AFA0EE36AFB0EE36AFC0EE36A00
:10119C00070E5A6EFE0E5AC0E3FFF70EE3A01BD0EB
:1011AC00FA0EE3504F6EF40EE3504F26FA0E4FC07A
:1011BC00E3FFFB0EE3504F6EF50EE3504F22FB0E98
:1011CC004FC0E3FFFC0EE3504F6EF60EE3504F2280
:1011DC00FC0E4FC0E3FFD890F90EE332F80EE33269
:1011EC00F70EE332D890F40EE336F50EE336F60E36
:1011FC00E336FE0EE3504F6E010E4F5EFE0E4FC0F7
:10120C00E3FFD8A4CAD7FE0EE36AE380E386F70EA9
:10121C00E3A01BD0FA0EE3504F6EF40EE3504F26B2
:10122C00FA0E4FC0E3FFFB0EE3504F6EF50EE3508A
:10123C004F22FB0E4FC0E3FFFC0EE3504F6EF60E39
:10124C00E3504F22FC0E4FC0E3FFD890F90EE3326F
:10125C00F80EE332F70EE332D890FC0EE332FB0EBD
:10126C00E332FA0EE332FE0EE3504F6E010E4F5E88
:10127C00FE0E4FC0E3FFD8A4CAD7FD0EE350E66EB6
:10128C00FE0EE350E66EF80EE3CFE6FFE3CFE6FF8B
:10129C00E3CFE6FF72EC0EF0F40EE126FF0EE22235
:1012AC001200090EE126000EE22220EE01F0E150C0
:1012BC00F70FE96EE250EA6EFF0EEA22040EDBCF66
:1012CC00EBFFE806FCE2040E506E000E516EFC0EB5
:1012DC0050C0E3FFFD0E51C0E3FFFE0EE36AFF0EAC
:1012EC00E36A3AD0FC0EE3CF50F0FD0EE3CF51F0A1
:1012FC00F70EE124596EFF0EE2205A6E505059241D
:10130C00D96E51505A20DA6E0A0EE66E000EE66E59
:10131C00F30EE3CFE6FFE3CFE6FF8BEC10F04F507C
:10132C00DF6E0A0EE66E000EE66EF30EE3CFE6FFFE
:10133C00E3CFE6FF9BEC0BF0F50E4FC0E3FFF60E90
:10134C0050C0E3FFE150FC0FD96EE250DA6EFF0E95
:10135C00DA22DE06000EDD5AF50EE3CF4FF0F60E64
:10136C00E3504F10D8A4BED7F30EE3282AE1F40EB5
:10137C00E328D8B410D025D0FE0EE350010F4F6EE9
:10138C00FE0E4FC0E3FF4F6AFF0EE3504F204F6E2F
:10139C00FF0E4FC0E3FFFE0EE3CF50F0FF0EE3CF86
:1013AC0051F0F70EE124596EFF0EE2205A6E5050A8
:1013BC005924D96E51505A20DA6EDF50D8A411D06E
:1013CC00DBD7050E506E000E516EF30EE350505EDF
:1013DC00F40EE350515AFE0E50C0E3FFFF0E51C005
:1013EC00E3FFF60EE3AE06D0010EE66E2D0EE66EB2
:1013FC00DDEC14F0FE0EE3CF4FF0FC0E4FC0E3FF1C
:10140C00FF0EE3CF4FF0FD0E4FC0E3FFFD0EE3BE2A
:10141C000AD0FD0EE3502DE1FC0EE3CF4FF0050E8C
:10142C004F5ED8B026D0010EE66EFB0EE3CF50F027
:10143C00FC0EE3CF51F0F60EE124596EFF0EE220C4
:10144C005A6E50505924D96E51505A20DA6EDF50D2
:10145C00300FE66EDDEC14F0FC0EE350010F4F6E16
:10146C00FC0E4FC0E3FF4F6AFD0EE3504F204F6E52
:10147C00CAD7F30EE126FF0EE2221200060EE12679
:10148C00000EE2220F0E5A6EF70EE3CF55F0F80E57
:10149C00E3CF56F0F90EE3CF57F05A284F6E04D035
:1014AC00D8905732563255324F2EFAD755505A6E75
:1014BC00FE0E5AC0E3FFFE0EE350D8A406D0000E79
:1014CC004F6E506A516A526A8FD0170E5A6EF70ED1
:1014DC00E3CF55F0F80EE3CF56F0F90EE3CF57F00B
:1014EC005A284F6E04D0D8905732563255324F2E60
:1014FC00FAD755505A6EFF0E5AC0E3FFF80EE38E22
:10150C00F90EE36AF70EE3CF58F0F80EE3CF59F07B
:10151C00F90EE3CF5AF05850536E5950546E5A503E
:10152C00556E566AFA0E53C0E3FFFB0E54C0E3FF30
:10153C00FC0E55C0E3FFFD0E56C0E3FFFE0EE3CFDD
:10154C004FF08E0E4F5EFE0E4FC0E3FFFE0EE3AE6D
:10155C0014D0FE0EE350800A8F0FD8A0B0D7D890CD
:10156C00FD0EE332FC0EE332FB0EE332FA0EE332F5
:10157C00FE0EE32AD8B417D0F2D7FE0EE3CF4FF00D
:10158C00170E4F640CD09BD7D890FA0EE336FB0E97
:10159C00E336FC0EE336FD0EE336FE0EE306FE0EDE
:1015AC00E350D8A4F1D7FF0EE350D8B411D0FA0E03
:1015BC00E36CFB0EE31EFC0EE31EFD0EE31E08E3C4
:1015CC00FB0EE32A05E3FC0EE32A02E3FD0EE32AFD
:1015DC00FA0EE3CF4FF0FB0EE3CF50F0FC0EE3CF4F
:1015EC0051F0FD0EE3CF52F0F70EE126FF0EE22292
:1015FC001200E652E652E652E652FA0EE3CF50F0F3
:10160C00FB0EE3CF51F0140E5024D96E000E512076
:10161C00DA6EDECF50F0DDCF51F0D8905036513627
:10162C00D89050365136FA0EE3CF59F0FB0EE3CF7B
:10163C005AF050505924D96E51505A20DA6EDECFE0
:10164C0057F0DECF58F0DECF59F0DECF5AF0FC0E5B
:10165C0057C0E3FFFD0E58C0E3FFFE0E59C0E3FF79
:10166C00FF0E5AC0E3FFFA0EE3CF50F0FB0EE3CFB0
:10167C0051F0140E5024D96E000E5120DA6EDECFCC
:10168C0057F0DECF58F0DECF59F0DECF5AF0010E16
:10169C005724536E000E5820546E000E5920556E70
:1016AC00000E5A20566E030E5314576E000E54142F
:1016BC00586E000E5514596E000E56145A6EFA0ED2
:1016CC00E3CF50F0FB0EE3CF51F0140E5024D96E43
:1016DC00000E5120DA6E57C0DEFF58C0DEFF59C035
:1016EC00DEFF5AC0DEFFFA0EE3CF50F0FB0EE3CF65
:1016FC0051F0100E5024D96E000E5120DA6EDE0619
:10170C00000EDE5ADE5ADE5AFC0EE3CF4FF0FD0E11
:10171C00E3CF50F0FE0EE3CF51F0FF0EE3CF52F0CB
:10172C00FA0EE126FF0EE2221200E652E652E652D3
:10173C00E652FE0EE36AF90EE3AE09D0F80EE36C46
:10174C00F90EE31ED8B0E32AFE0EE36AE32AFB0E81
:10175C00E3AE08D0FA0EE36CFB0EE31ED8B0E32A1E
:10176C00FE0EE370FC0EE36AFD0EE36AF80EE3CFA7
:10177C004FF0F90EE3504F10D8B45BD0FF0EE36A74
:10178C0010D0F80EE350D890E8344F6EF80E4FC0DE
:10179C00E3FFF90EE350E8344F6EF90E4FC0E3FF50
:1017AC00FF0EE32AF90EE3AEECD7FC0EE350D89013
:1017BC00E8344F6EFC0E4FC0E3FFFD0EE350E834EF
:1017CC004F6EFD0E4FC0E3FFF80EE3CF50F0F90E55
:1017DC00E3CF51F0FA0EE3CF59F0FB0EE3CF5AF002
:1017EC005050595C51505A58D8A014D0FA0EE350AE
:1017FC004F6EF80EE3504F5EFA0E4FC0E3FFFB0E38
:10180C00E3504F6EF90EE3504F5AFB0E4FC0E3FFFF
:10181C00FC0EE380D890F90EE332F80EE332FF0EA3
:10182C00E3504F6E010E4F5EFF0E4FC0E3FFD8A486
:10183C00BCD7FE0EE350D8B406D0FC0EE36CFD0E04
:10184C00E31ED8B0E32AFC0EE3CF4FF0FD0EE3CF3E
:10185C0050F0F80EE126FF0EE222120036EC17F0E3
:10186C0045EC19F00EEC18F0010EDFEC17F0000E41
:10187C00E66E000EE66EF7EC18F00B0EE66E060E3A
:10188C00E66E78EC17F050EC19F06EEC19F0BE0E19
:10189C000101136F000E146F000E156F000E166F02
:1018AC00000E176F000E186F25EC19F0A40E010135
:1018BC00136F000E146F010E156F000E166F000ED5
:1018CC00176F000E186F25EC19F0010E0101116F46
:1018DC00000E126F000E136F000E146F0A0E156FB0
:1018EC00000E166F000E176F000E186FB00E196FEA
:1018FC001A0E1A6F37EC07F0020E0101116F000E71
:10190C00126F000E136F000E146F090E156F000E80
:10191C00166F000E176F000E186F5A0E196F260EE9
:10192C001A6F37EC07F0030E0101116F000E126FE6
:10193C00000E136F000E146F080E156F000E166F4D
:10194C00000E176F000E186FBE0E196F270E1A6F50
:10195C0037EC07F0040E0101116F000E126F000E30
:10196C00136F000E146F070E156F000E166F000E1E
:10197C00176F000E186F400E196F310E1A6F37EC7F
:10198C0007F062EC19F000F0FED7E652E652E65290
:10199C00E652FA0EE3CF50F0FB0EE3CF51F0140EEB
:1019AC005024D96E000E5120DA6EDECF57F0DECF08
:1019BC0058F0DECF59F0DECF5AF0FA0EE3CF50F0EC
:1019CC00FB0EE3CF51F0100E5024D96E000E5120B7
:1019DC00DA6EDECF53F0DECF54F0DECF55F0DECF33
:1019EC0056F0575053244F6E58505420506E595047
:1019FC005520516E5A505620526E030E4F14576E8E
:101A0C00000E5014586E000E5114596E000E5214E4
:101A1C005A6EFC0E57C0E3FFFD0E58C0E3FFFE0EDE
:101A2C0059C0E3FFFF0E5AC0E3FFE150F60FD96E29
:101A3C00E250DA6EFF0EDA22FC0EE3CF50F0FD0E10
:101A4C00E3CF51F0D89050365136D89050365136AD
:101A5C00FA0EE3CF59F0FB0EE3CF5AF05050592455
:101A6C00E96E51505A20EA6EDECFEEFFDECFEEFF6C
:101A7C00DECFEEFFDECFEEFFFA0EE3CF50F0FB0E23
:101A8C00E3CF51F0100E5024D96E000E5120DA6EB7
:101A9C00DE2A000EDE22DE22DE22F60EE126FF0E0C
:101AAC00E2221200130E0101076F000E086F010EE7
:101ABC00096F000E0A6F000E0B6F000E0C6F040EF8
:101ACC000D6F000E0E6F000E0F6F000E106FA6EC58
:101ADC0016F0A40EE66E000EE66EC4EC15F05BD0AC
:101AEC0082BE02D0829264D08282310E5B6E60D054
:101AFC000D5007E10A0E0C5CD8B003D0828482969C
:101B0C0002D0320E5B6E130E0001E56F000EE66F15
:101B1C005BC0E7F0E5EC0DF04BD00B500CE10A0E7E
:101B2C000A5CD8B008D00D5004E10A0E0C5CD8A0A9
:101B3C0002D0828602D0330E5B6E130E0001E56F6D
:101B4C00000EE66F5BC0E7F0E5EC0DF031D00D5008
:101B5C0004E10A0E0C5CD8A02BD00B5004E10A0E49
:101B6C000A5CD8A025D0010EE66E000EE66EF7ECEE
:101B7C0018F0010EE66E060EE66E78EC17F0E80E25
:101B8C000101066F030E076F000E086F000E096F40
:101B9C00BFEC18F00DD05B50300AD8B4A1D7010AB5
:101BAC00D8B4A6D7030AD8B4B8D7010AD8B4CFD7BB
:101BBC00BE0EE66E000EE66EF0EC16F08AD7F29EC4
:101BCC00000120EE0EF0E551D926E651DA2200EEA6
:101BDC0012F0E551E926E651EA22DE50EE180FE14B
:101BEC00DE50EE180CE1DE50EE1809E1DE50EE1876
:101BFC00D8A405D0030EE66E0EEC03F06BD00001FA
:101C0C0020EE06F0E551D926E651DA22DECFE8F0D7
:101C1C00DDCFE9F020EE04F0E551D926E651DA22C9
:101C2C00DECFEAF0DDCFEBF0E851EA25D96EE951D1
:101C3C00EB21DA6EE7C0DFFF20EE0EF0E551D9267E
:101C4C00E651DA22DECFE6FFDECFE6FFDECFE6FF9F
:101C5C00DECFE6FF20EE06F0E551D926E651DA227A
:101C6C00DECFE8F0DECFE9F0DECFEAF0DECFEBF04E
:101C7C00010EE825EC6F000EE921ED6F000EEA2154
:101C8C00EE6F000EEB21EF6FECC0E6FFEDC0E6FF50
:101C9C00EEC0E6FFEFC0E6FF05EC12F0000120EE0F
:101CAC0006F0E551D926E651DA224FC0DEFF50C0CE
:101CBC00DEFF51C0DEFF52C0DEFF20EE12F0E55118
:101CCC00D926E651DA22DE2A000EDE22DE22DE22C0
:101CDC00D1EC12F0F28E1200FC0EE350D8B40AD004
:101CEC00FD0EE35017E1FE0EE35014E1FF0EE3503E
:101CFC00D8A410D0000E4F6E000E506E000E516E18
:101D0C0072D0FC0EE32AD890FF0EE332FE0EE332C3
:101D1C00FD0EE332586A596AFF0EE3CF5AF0FE0EFD
:101D2C005A16D8B415D0EDD7FC0EE32AE150FD0FAE
:101D3C00D96EE250DA6EFF0EDA22DE2A000EDE22B7
:101D4C00DE22D890FF0EE332FE0EE332FD0EE332BC
:101D5C00586A596AFF0EE3CF5AF0FF0E5A16D8B4E0
:101D6C000AD0E2D7FC0EE306D890FD0EE336FE0E49
:101D7C00E336FF0EE336FE0EE3BE06D0FC0EE3CFD9
:101D8C004FF0020E4F60EED7FC0EE3B002D0FE0E09
:101D9C00E39EE150FC0FD96EE250DA6EFF0EDA22B0
:101DAC00D890DF32FC0EE3505A6E596A586AE150F3
:101DBC00FD0FD96EE250DA6EFF0EDA225850DE12A9
:101DCC005950DE125A50DE12FB0EE350D8B402D03A
:101DDC00FF0EE38EFD0EE3CF4FF0FE0EE3CF50F07F
:101DEC00FF0EE3CF51F0FB0EE126FF0EE2221200B4
:101DFC00D5AE62EC19F0000E0001F06F000EEF6F23
:101E0C00F0BF08D0F05105E1040EEF5DD8B0120020
:101E1C0001D01200EFC000F1F0C001F10101D89027
:101E2C0000370137D89000370137D8900037013789
:101E3C0000510001E525D96E010101510001E62197
:101E4C00DA6EDE50DE10DE10DE10D8A450D0EFC0FB
:101E5C0000F1F0C001F10101D89000370137D890A2
:101E6C0000370137D8900037013700510001E525C4
:101E7C00D96E010101510001E621DA6EE7C0DEFFE7
:101E8C00E8C0DEFFE9C0DEFFEAC0DEFFEFC000F114
:101E9C00F0C001F10101D89000370137D89000371C
:101EAC000137D89000370137E5C002F1E6C003F1E5
:101EBC000051022701510323040E0225D96E000E96
:101ECC000321DA6EEBC0DEFFECC0DEFFEDC0DEFFFF
:101EDC00EEC0DEFF000120EE20F0E551D926E651E0
:101EEC00DA22DE2A000EDE22DE22DE221200EF4B88
:101EFC00F02BF0BF8FD7F05101E186D71200F29E84
:101F0C00000120EE12F0D851D926D951DA22DE5038
:101F1C00DE10DE10DE10D8A405D0030EE66E0EEC3B
:101F2C0003F06FD0000120EE0AF0D851D926D95118
:101F3C00DA22DECFDCF0DDCFDDF020EE04F0D8517C
:101F4C00D926D951DA22DECFDEF0DDCFDFF0DC513D
:101F5C00DE25D96EDD51DF21DA6EDAC0E9FFDBC098
:101F6C00EAFFDFCFEFFF20EE0EF0D851D926D95182
:101F7C00DA22DECFE6FFDECFE6FFDECFE6FFDECFF6
:101F8C00E6FF20EE0AF0D851D926D951DA22DECF5D
:101F9C00DCF0DECFDDF0DECFDEF0DECFDFF0010EE9
:101FAC00DC25E06F000EDD21E16F000EDE21E26F1B
:101FBC00000EDF21E36FE0C0E6FFE1C0E6FFE2C008
:101FCC00E6FFE3C0E6FF05EC12F0000120EE0AF09C
:101FDC00D851D926D951DA224FC0DEFF50C0DEFFCE
:101FEC0051C0DEFF52C0DEFF20EE12F0D851D926D0
:101FFC00D951DA22DE06000EDE5ADE5ADE5AD1EC58
:10200C0012F0F28E12000101046F7E0E01010465C4
:10201C0006D0000E0001ED6F000EEE6F1200590E8F
:10202C000101056F030E066F05C1D9FF06C1DAFF6A
:10203C00DF500101036F03517F0B0001EF6FEF05C0
:10204C000101026F0351D8A406D0000E0001ED6F00
:10205C00000EEE6F120003BF4CD00451025DD8B0DD
:10206C000BD005C1E5F006C1E6F038EC14F0000920
:10207C00D8A4DAD701013DD002510419D8A40FD04D
:10208C0005C1D9FF06C1DAFFDF8E010E052500015F
:10209C00ED6F000E010106210001EE6F120001012F
:1020AC000451810F05C1D9FF06C1DAFFDF6E010EA5
:1020BC000525006F000E0621016F04510001EF6F22
:1020CC00F06B010EEF27000EF023EF5101010527F5
:1020DC000001F0510101062304510008022505C13D
:1020EC00D9FF06C1DAFFDF6E00C1EDF001C1EEF0E1
:1020FC00120003517F0B0001EF6FEF51010DF350F4
:10210C0001010527F45006238FD7E652E652FE0E46
:10211C00E36AFD0EE3AE09D0FC0EE36CFD0EE31E8C
:10212C00D8B0E32AFE0EE36AE32AFB0EE3AE06D038
:10213C00FA0EE36CFB0EE31ED8B0E32AFA0EE3CFE3
:10214C004FF0FB0EE3504F10D8B44AD0FF0EE36AA9
:10215C0010D0FA0EE350D890E8344F6EFA0E4FC000
:10216C00E3FFFB0EE350E8344F6EFB0E4FC0E3FF72
:10217C00FF0EE32AFB0EE3AEECD7FA0EE3CF50F0E2
:10218C00FB0EE3CF51F0FC0EE3CF59F0FD0EE3CF85
:10219C005AF05050595C51505A58D8A012D0FC0EDD
:1021AC00E3504F6EFA0EE3504F5EFC0E4FC0E3FF50
:1021BC00FD0EE3504F6EFB0EE3504F5AFD0E4FC019
:1021CC00E3FFD890FB0EE332FA0EE332FF0EE3503E
:1021DC004F6E010E4F5EFF0E4FC0E3FFD8A4CDD75C
:1021EC00FE0EE350D8B406D0FC0EE36CFD0EE31EDD
:1021FC00D8B0E32AFC0EE3CF4FF0FD0EE3CF50F046
:10220C00FA0EE126FF0EE22212000C0EE126000E61
:10221C00E22255C357F056C358F057C359F058C370
:10222C005AF0F80E57C0E3FFF90E58C0E3FFFA0E50
:10223C0059C0E3FFFB0E5AC0E3FF51C357F052C322
:10224C0058F053C359F054C35AF0FC0E57C0E3FF77
:10225C00FD0E58C0E3FFFE0E59C0E3FFFF0E5AC03F
:10226C00E3FFE150F80FD96EE250DA6EFF0EDA227E
:10227C00DE2A000EDE22DE22DE22FC0EE3CFE6FF9B
:10228C00E3CFE6FFE3CFE6FFE3CFE6FFF40EE3CFC9
:10229C00E6FFE3CFE6FFE3CFE6FFE3CFE6FF05EC97
:1022AC0012F0F40E4FC0E3FFF50E50C0E3FFF60E34
:1022BC0051C0E3FFF70E52C0E3FF700EE66E000E46
:1022CC00E66EF20EE3CFE6FFE3CFE6FF10EC16F07E
:1022DC00290E4F24D96E010E5020DA6EDF50D8A48F
:1022EC00C0D7F40EE3CF4FF0F50EE3CF50F0F60E5F
:1022FC00E3CF51F0F70EE3CF52F0F40EE126FF0ED0
:10230C00E2221200000E3E6E000E3D6E3EBE06D066
:10231C003E5074E1040E3D5CD8B012003DC035F067
:10232C003EC036F0D89035363636D89035363636FF
:10233C00D8903536363635503324D96E3650342055
:10234C00DA6EDE50DE10DE10DE10D8B450D03DC098
:10235C0035F03EC036F0D89035363636D890353616
:10236C003636D8903536363633C037F034C038F080
:10237C003550372636503822040E3724D96E000ECD
:10238C003820DA6EDE06000EDE5ADE5ADE5A3DC00A
:10239C0035F03EC036F0D89035363636D8903536D6
:1023AC003636D8903536363633C037F034C038F040
:1023BC003550372636503822040E3724D96E000E8D
:1023CC003820DA6EDE50DE10DE10DE10D8A40FD00E
:1023DC0033C029F034C02AF03DC02BF03EC02CF0A5
:1023EC00000E2CBEFF0E2D6E2E6E8DEC14F03D4AA1
:1023FC003E2A3EBE93D73E5001E18CD71200E652E6
:10240C00F70EE3500AE1F80EE35007E1F90EE35042
:10241C0004E1FA0EE350D8B44CD0FF0EE36A0AD0B4
:10242C00D890F70EE336F80EE336F90EE336FA0ED3
:10243C00E336FF0EE32AFA0EE3AEF2D7E150FB0FC0
:10244C00D96EE250DA6EFF0EDA22F70EE350DE5C44
:10245C00F80EE350DE58F90EE350DE58FA0EE35056
:10246C00DE58D8A013D0E150FB0FD96EE250DA6ED3
:10247C00FF0EDA22F70EE350DE5EF80EE350DE5A62
:10248C00F90EE350DE5AFA0EE350DE5AD890FA0EEB
:10249C00E332F90EE332F80EE332F70EE332FF0EBD
:1024AC00E3504F6E010E4F5EFF0E4FC0E3FFD8A4FA
:1024BC00C5D7FB0EE3CF4FF0FC0EE3CF50F0FD0E73
:1024CC00E3CF51F0FE0EE3CF52F0F70EE126FF0EF4
:1024DC00E2221200FD0EE35012E1FE0EE3500FE17A
:1024EC00FF0EE350D8A40BD0FB0EE3CFD9FFFC0EAC
:1024FC00E3CFDAFF000EDE6E000EDD6E47D0FF0E6E
:10250C00E124D96EFF0EE220DA6EDF507F0B5A6E9B
:10251C00D8905A34506E516A5136FB0EE3CFD9FF26
:10252C00FC0EE3CFDAFF50C0DEFF51C0DDFFFB0E27
:10253C00E3CFD9FFFC0EE3CFDAFFFE0EE124E96E08
:10254C00FF0EE220EA6EEFAE02D0010E01D0000EBB
:10255C00DE12000EDD12FB0EE3CFD9FFFC0EE3CF33
:10256C00DAFF820EDE26FF0EDD22FF0EE124D96E8D
:10257C00FF0EE220DA6EDF50800B3F09DF6EFE0E9D
:10258C00E124D96EFF0EE220DA6EDF9EFB0EE1260F
:10259C00FF0EE2221200E652E652FE0EE36AFF0E36
:1025AC00E36A37D0700EE66E000EE66EFC0EE3CFDB
:1025BC00E6FFE3CFE6FF10EC16F0290E4F24D96EA0
:1025CC00010E5020DA6E030EDE18D8A413D0700E54
:1025DC00E66E000EE66EFC0EE3CFE6FFE3CFE6FF01
:1025EC0010EC16F0290E4F24D96E010E5020DA6E25
:1025FC00000EDF6EFE0EE350010F4F6EFE0E4FC04D
:10260C00E3FF4F6AFF0EE3504F204F6EFF0E4FC09B
:10261C00E3FF23EE51F0FE0EE3CF59F0FF0EE3CFB4
:10262C005AF059C053F05AC054F0000E54BEFF0E6D
:10263C00556E566EDE50535CDE505458DE50555875
:10264C00DE505658D8A0AED7E552E5521200BE0E59
:10265C00E66E000EE66EC4EC15F0000EE66E81EC34
:10266C0018F04FC00EF050C00FF0D70EE66EA30E50
:10267C00E66E3C0EE66E0EC0E6FF0FC0E6FFDDEC2C
:10268C0018F04FC0E6FF50C0E6FF51C0E6FF4AEC21
:10269C0008F04FC0E6FF50C0E6FF51C0E6FF5BEC10
:1026AC0016F04FC0E6FF50C0E6FF51C0E6FF44EC09
:1026BC000AF04FC00CF050C00DF0010EE66E000E8B
:1026CC00E66EF7EC18F0170EE66E060EE66E78EC7A
:1026DC0017F0010EE66E020EE66EF7EC18F0030E24
:1026EC00E66E000EE66E0CC0E6FF0DC0E6FF57EC82
:1026FC0009F0A40EE66E000EE66EF0EC16F0A7D70D
:10270C00050EE126000EE222FE0EE124E66EFF0E1F
:10271C00E220E66EF60EE3CFE6FFE3CFE6FFE3CF73
:10272C00E6FF70EC12F0FF0EE3AE07D0000E4F6E1A
:10273C00000E506E000E516E37D0FF0EE35007E1C5
:10274C00FE0EE3CF4FF0150E4F5ED8A008D0F80E5A
:10275C00E3CF4FF0F90EE3CF50F0FA0E23D0F80E82
:10276C00E3CFE6FFE3CFE6FFE3CFE6FF44EC0AF06E
:10277C004FC0E6FF50C0E6FF51C0E6FF52C0E6FF77
:10278C0077EC15F0FB0E4FC0E3FFFC0E50C0E3FFDF
:10279C00FD0E51C0E3FFFB0EE3CF4FF0FC0EE3CF79
:1027AC0050F0FD0EE3CF51F0F80EE126FF0EE222C1
:1027BC001200BE0EE66E000EE66EC4EC15F0010EB5
:1027CC00E66E81EC18F04FC00EF050C00FF0D70E33
:1027DC00E66EA30EE66E3C0EE66E0EC0E6FF0FC074
:1027EC00E6FFDDEC18F04FC0E6FF50C0E6FF51C02D
:1027FC00E6FF4AEC08F04FC0E6FF50C0E6FF51C0C0
:10280C00E6FF5BEC16F04FC0E6FF50C0E6FF51C090
:10281C00E6FF44EC0AF04FC00AF050C00BF0010E7A
:10282C00E66E060EE66EF7EC18F0130EE66E060E6C
:10283C00E66E78EC17F0010EE66E080EE66EF7EC1D
:10284C0018F0020EE66E000EE66E0AC0E6FF0BC034
:10285C00E6FF57EC09F0A40EE66E000EE66EF0EC07
:10286C0016F0A7D7E5C0D9FFE6C0DAFFDF500001AC
:10287C00E76FE751010DF350E525E96FF450E621C0
:10288C00EA6FE5C0D9FFE6C0DAFFDF50EB6FE9C0B5
:10289C00D9FFEAC0DAFFDF50EC6FEC51D8A402D0BC
:1028AC00000E1200EBBF02D0ECAF02D0000E1200F3
:1028BC00EB517F0B7F0AD8A402D0000E1200EB5113
:1028CC00EC25E86F7F0EE8651AD0E5C0D9FFE6C0AD
:1028DC00DAFF7F0EDF6E7F0EE527000EE623EC514C
:1028EC00010DF350E927F450EA23E5510008E925DE
:1028FC00E5C0D9FFE6C0DAFFDF6E7F0E1200E5C03F
:10290C00D9FFE6C0DAFFE8C0DFFFDF501200700E1F
:10291C00E66E000EE66E2BC02FF02CC030F0D89077
:10292C002F363036D8902F363036D8902F3630366A
:10293C002F502924D96E30502A20DA6EDECF31F098
:10294C00DDCF32F031C0E6FF32C0E6FF10EC16F0FE
:10295C00080E4F26000E5022210E4F24D96E010E68
:10296C005020DA6E000EDF6E2BC02FF02CC030F032
:10297C00D8902F363036D8902F363036D8902F3618
:10298C0030362F502924D96E30502A20DA6EDE6A68
:10299C00DE6ADE6ADD6A20EE20F02950D9262A5044
:1029AC00DA22DE06000EDE5ADE5ADE5A1200E6523B
:1029BC00E652E652FC0EE3CF5AF05A3A0F0E5A1674
:1029CC00FF0E5AC0E3FFFC0EE3CF5AF00F0E5A165F
:1029DC00FE0E5AC0E3FFFB0EE350D8A402D08A923D
:1029EC0001D08A8200D08C88FF0EE3CF5AF08C5035
:1029FC00F00B5A105A6EFD0E5AC0E3FFFD0EE3CFDA
:102A0C008CFF00D000D000F08C9800D000D000F0EB
:102A1C008C88FE0EE3CF5AF08C50F00B5A105A6E85
:102A2C00FD0E5AC0E3FFFD0EE3CF8CFF00D000D0AB
:102A3C0000F08C9800D000D000F02AEC15F0FB0EC2
:102A4C00E126FF0EE2221200E652E652E6520F0E8B
:102A5C0095128A848A9200D08C8800D0FD0E83CF88
:102A6C00E3FFE150FD0FD96EE250DA6EFF0EDA2271
:102A7C00DF3AF00EDF1600D08C9800D000D000F0BA
:102A8C008C8800D0FE0E83CFE3FFFE0EE3CF4FF019
:102A9C000F0E4F16FE0E4FC0E3FFFE0EE3CF5AF0A3
:102AAC00E150FD0FD96EE250DA6EFF0EDA225A5069
:102ABC00DF12FD0EE3CF5AF0800E5A16FF0E5AC0ED
:102ACC00E3FF00D08C9800D000D000F0FF0EE35054
:102ADC00D8A4C2D78A94F00E9516E552E552E55269
:102AEC001200E652E652FE0EE36A8E0E5A6EFF0E8E
:102AFC005AC0E3FFFD0EE3AE1FD0FA0EE36CFB0EE3
:102B0C00E31EFC0EE31EFD0EE31E08E3FB0EE32AA0
:102B1C0005E3FC0EE32A02E3FD0EE32AFE0EE36A54
:102B2C000AD0D890FD0EE332FC0EE332FB0EE332FA
:102B3C00FA0EE332FF0EE32AE150FA0FD96EE2509F
:102B4C00DA6EFF0EDA22DE52DE52DE52FF0EDD149A
:102B5C00D8A4E7D7FE0EE350E66EFE0EE350E66E09
:102B6C00F80EE3CFE6FFE3CFE6FFE3CFE6FF72EC30
:102B7C000EF0FA0EE126FF0EE2221200F29EFE0E7D
:102B8C00E3CFD9FFFF0EE3CFDAFFDE06000EDD5AEE
:102B9C00FE0EE3CFD9FFFF0EE3CFDAFF010EDBAE63
:102BAC0035D023EE55F0DECFE6FFDECFE6FFDECFED
:102BBC00E6FFDECFE6FFFA0EE350020F506EFB0E7F
:102BCC00E3CF51F0000E512250C0E6FF51C0E6FF9A
:102BDC00CBEC0CF0700EE66E000EE66E23EE55F0AC
:102BEC00DECF50F0DDCF51F050C0E6FF51C0E6FF14
:102BFC0010EC16F0290E4F24D96E010E5020DA6E0F
:102C0C00020EDF6E020EE66E0EEC03F0F28EE55253
:102C1C00E5521200E652E652FA0EE3CF5AF0FC0EE1
:102C2C00E3505A02FE0EF3CFE3FFFF0EF4CFE3FFA7
:102C3C00FB0EE124D96EFF0EE220DA6EDF505A6EE5
:102C4C00FC0EE3505A02F3CFF4FFF36AE150FE0F8F
:102C5C00D96EE250DA6EFF0EDA22F350DE26F45013
:102C6C00DD22FA0EE3CF5AF0FD0EE124D96EFF0EF1
:102C7C00E220DA6EDF505A02F3CFF4FFF36AE15030
:102C8C00FE0FD96EE250DA6EFF0EDA22F350DE261A
:102C9C00F450DD22FE0EE3CF4FF0FF0EE3CF50F0E9
:102CAC00FA0EE126FF0EE2221200E652E652E6523E
:102CBC00FA0EE3CFE6FFE3CFE6FFE3CFE6FF86ECC9
:102CCC0013F04FC0E6FF50C0E6FF51C0E6FFF70E11
:102CDC00E3CFE6FFE3CFE6FFE3CFE6FF60EC18F0CF
:102CEC00FD0E4FC0E3FFFE0E50C0E3FFFF0E51C0C0
:102CFC00E3FFFD0EE3CFE6FFE3CFE6FFE3CFE6FF16
:102D0C00F70EE3CFE6FFE3CFE6FFE3CFE6FFB1EC50
:102D1C0005F0FA0E4FC0E3FFFB0E50C0E3FFFC0EB4
:102D2C0051C0E3FFFA0EE3CFE6FFE3CFE6FFE3CFBC
:102D3C00E6FF86EC13F0FA0EE126FF0EE2221200FB
:102D4C0007C1D9FF08C1DAFF09C1DEFF0AC1DEFFE6
:102D5C000BC1DEFF0CC1DEFF010120EE0AF00751B2
:102D6C00D9260851DA22DE6ADE6ADE6ADD6A20EED6
:102D7C0006F00751D9260851DA22DE6ADE6ADE6ACD
:102D8C00DD6A20EE0EF00751D9260851DA220DC16A
:102D9C00DEFF0EC1DEFF0FC1DEFF10C1DEFF0D51E5
:102DAC0009EC10F0010120EE04F00751D92608516E
:102DBC00DA220001EDC0DEFFEEC0DDFF010120EEE6
:102DCC0012F00751D9260851DA22DE6ADE6ADE6A71
:102DDC00DD6A1200F29EFE0EE3CFD9FFFF0EE3CFA9
:102DEC00DAFFDE2A000EDD22FE0EE3CFD9FFFF0E46
:102DFC00E3CFDAFF010EDBBE06D0010EDB502CE177
:102E0C00DE04D8B029D0700EE66E000EE66EFC0E15
:102E1C00E350020F506EFD0EE3CF51F0000E512225
:102E2C0050C0E6FF51C0E6FFFFEC0AF04FC059F06E
:102E3C0050C05AF059C0E6FF5AC0E6FF10EC16F02D
:102E4C00290E4F24D96E010E5020DA6E000EDF6E63
:102E5C00000EE66E0EEC03F0F28EE552E552120017
:102E6C00000EE8CF21F1000EE8CF22F1000EE8CFE2
:102E7C0023F1000EE8CF24F1000EE8CF25F1000E6F
:102E8C00E8CF26F1000EE8CF27F1000EE8CF28F1AD
:102E9C00000EE8CF29F1000EE8CF2AF1000EE8CFA2
:102EAC002BF1010EE8CF51F3000EE8CF52F3000ED8
:102EBC00E8CF53F3000EE8CF54F3000EE8CF55F3F0
:102ECC00000EE8CF56F3000EE8CF57F3000EE8CF14
:102EDC0058F3800E0101116F000E126FADEC17F05C
:102EEC00F28E120021D0010EE66EE150FD0FD96E6C
:102EFC00E250DA6EFF0EDA22DECFF6FFDDCFF7FFFF
:102F0C000800F550E66EDDEC14F0FE0EE350010FF8
:102F1C004F6EFE0E4FC0E3FF4F6AFF0EE3504F2083
:102F2C004F6EFF0E4FC0E3FFE150FE0FD96EE25023
:102F3C00DA6EFF0EDA22DECFF6FFDDCFF7FF0800E8
:102F4C00F5500009D8A4CFD7E552E5521200010183
:102F5C0020EE20F01151D9261251DA22DE6ADE6AF7
:102F6C00DE6ADD6A000E166F000E156F16BF06D0F6
:102F7C0016511EE1040E155DD8B0120015C113F1E7
:102F8C0016C114F1D89013371437D890133714375F
:102F9C00D8901337143713511125D96E14511221AF
:102FAC00DA6EDE6ADE6ADE6ADD6A154B162BDED758
:102FBC0012000101126FC30E0101116FCD0EE82E2C
:102FCC00FED7112FFCD7F00E9516959893929394EB
:102FDC00F00E8C168C988A948A9200F08C888C82D5
:102FEC0000D000D000F08C9800D000D000F02AEC7B
:102FFC0015F0000EE66E010112510C09E66EDDECC7
:10300C0014F0000EE66E280EE66EDDEC14F01200E5
:10301C00590E0101116F030E126F010E146F13691B
:10302C00145104E1800E135DD8A011D011C1D9FF49
:10303C0012C1DAFF7F0EDF6E7F0E1127000E1223F6
:10304C00810E1325136FFF0E1421146FE9D711C1D4
:10305C00D9FF12C1DAFF13C1DFFF13511125D96E4D
:10306C0014511221DA6E000EDF6E1200E20EF66EB3
:10307C00320EF76E000EF86E0900F5CF5BF001EE24
:10308C0021F024EE38F0EE6ADD50D950FCE1DA5034
:10309C00FAE100EE80F0580EEE6AE806FDE100EE73
:1030AC0001F0280EEE6AE806FDE1000EF86E000154
:1030BC0034EF0CF0FA0EE35007E1FB0EE35004E1A1
:1030CC00FC0EE350D8B402D0FC0EE37EFA0EE3CF34
:1030DC00E6FFE3CFE6FFE3CFE6FFFA0EE3CFE6FF32
:1030EC00E3CFE6FFE3CFE6FFB1EC05F0FA0EE12605
:1030FC00FF0EE2221200FF0EE3CF4FF00D0E4F64D5
:10310C0005D0000E4F6E000E506E12D0C26AFF0E2C
:10311C00E3CF5AF0D8905A36D8905A34C26EC28047
:10312C00C282C2B2FED7C290C3CF4FF0C4CF50F010
:10313C00E5521200130E0001D86F000ED96FE40E89
:10314C00DA6F000EDB6F85EC0FF0320E0001E41924
:10315C00D8A402D08294EED7330EE419D8A4EAD7BF
:10316C0082948296130ED86F000ED96F37EC19F03B
:10317C00E1D7F29E800E0001E56F000EE66F55C39D
:10318C00E7F056C3E8F057C3E9F058C3EAF006C1BC
:10319C00EBF007C1ECF008C1EDF009C1EEF0FEEC6C
:1031AC000EF0020EE66E0EEC03F0F28E1200000E24
:1031BC00E66E8E0EE66EFC0EE3CF59F0FD0EE3CFFD
:1031CC005AF059C055F05AC056F0576A55C0E6FF30
:1031DC0056C0E6FF57C0E6FF72EC0EF0E552E55222
:1031EC001200FF0EE3CF4FF0280E4F600FD0FE0EF3
:1031FC00E350D8B402D0FF0EE38CFF0EE38E000E2A
:10320C00E66EFE0EE350E66EDDEC14F0E552E55290
:10321C001200010120EE14F01151D9261251DA22BC
:10322C00DE6ADE6ADE6ADD6A20EE10F01151D92604
:10323C001251DA22DE6ADE6ADE6ADD6A120013C11E
:10324C00D9FF14C1DAFF15C1DEFF16C1DDFF020E76
:10325C0001011325116F000E1421126F0FEC19F0E0
:10326C001200000120EE04F0D851D926D951DA22EF
:10327C00DECF4DF0DDCF4EF05AEC19F01200D59A9E
:10328C00D59CD596D550F80B0209D56EF28AF294DE
:10329C00F28C120094909492949494969498949A9C
:1032AC00948E8290829212002FEEFFF04D50D92610
:1032BC004E50DA22DF9E1200FD0ED76E8F0ED66EA8
:1032CC00D58E1200F294FD0ED76E8F0ED66E1200B4
:0732DC008A0EC06E120030E3
:020000040020DA
:08000000FFFFFFFFFFFFFFFF00
:020000040030CA
:0E000000FF021F1EFF8385FF0FC00FE00F40A1
:00000001FF
