:0400000047EF00F0D6
:100008005482FACF27F0FBCF28F0E9CF29F0EACFC6
:100018002AF0E1CF2BF0E2CF2CF0D9CF2DF0DACFB8
:100028002EF0F3CF2FF0F4CF30F0F6CF31F0F7CF3A
:1000380032F0F8CF33F0F5CF34F0F2BAF2A405D0AD
:1000480080EC05F0000E49EC00F034C0F5FF33C039
:10005800F8FF32C0F7FF31C0F6FF30C0F4FF2FC001
:10006800F3FF2EC0DAFF2DC0D9FF2CC0E2FF2BC052
:10007800E1FF2AC0EAFF29C0E9FF28C0FBFF27C02B
:10008800FAFF54921100F3EF04F0226EF29E376FDC
:10009800E0CF36F0D8CF35F0FCC501F0FDC502F051
:1000A800000E046E700E036E42EC05F00B0E012676
:1000B800000E0222380E0124D96E040E0220DA6ED8
:1000C80037C0DFFFFCC501F0FDC502F0000E046E6D
:1000D800700E036E42EC05F00C0E0126000E022293
:1000E800380E0124D96E040E0220DA6E36C0DFFF06
:1000F800FCC501F0FDC502F0000E046E700E036E23
:1001080042EC05F00D0E0126000E0222380E0124E5
:10011800D96E040E0220DA6E35C0DFFFD2D0FCC5DE
:1001280001F0FDC502F0000E046E700E036E42EC85
:1001380005F0120E0126000E0222380E1B6E040E68
:100148001C6E01501B2602501C2225EEFCF0DECF4F
:100158001DF0DDCF1EF0700E1D02F3CF1FF0F4CF9F
:1001680020F01E02F35020266F0E1F26000E2022BC
:10017800380E1F24D96E040E2020DA6EDF50216E4F
:100188002150030DF3501B26F4501C22020E1B2491
:10019800D96E000E1C20DA6EDF50FF18E00BFF1836
:1001A800DF6EFCC501F0FDC502F0000E046E700E96
:1001B800036E42EC05F0120E0126000E0222380EE4
:1001C8001B6E040E1C6E01501B2602501C2225EECD
:1001D800FCF0DECF1DF0DDCF1EF0700E1D02F3CF58
:1001E8001FF0F4CF20F01E02F35020266F0E1F26BA
:1001F800000E2022380E1F24D96E040E2020DA6E3D
:10020800DF50216E2150030DF3501B24D96EF4509A
:100218001C20DA6EFDCFDFFFFCC501F0FDC502F042
:10022800000E046E700E036E42EC05F0120E0126ED
:10023800000E0222380E1B6E040E1C6E01501B2687
:1002480002501C2225EEFCF0DECF1DF0DDCF1EF0A3
:10025800700E1D02F3CF1FF0F4CF20F01E02F350F2
:1002680020266F0E1F26000E2022380E1F24D96E5E
:10027800040E2020DA6EDF50216E2150030DF3505A
:100288001B26F4501C22010E1B24D96E000E1C20C4
:10029800DA6EFECFDFFFFCC501F0FDC502F0000EEF
:1002A800046E700E036E42EC05F06F0E0126000E10
:1002B8000222380E0124D96E040E0220DA6EDF2ADB
:1002C8000600FC50D8A42BD7FCC501F0FDC502F0F0
:1002D800000E046E700E036E42EC05F0080E012647
:1002E800000E0222380E0124D96E040E0220DA6EA6
:1002F80022C0DFFFBAEC03F007C023F008C024F0E7
:1003080009C025F00AC026F023C0FCF524C0FDF57D
:1003180025C0FEF526C0FFF523C001F024C002F079
:10032800000E046E700E036E42EC05F0080E0126F6
:10033800000E0222380E0124D96E040E0220DA6E55
:10034800010EDF6E000EFC6EFCC501F0FDC502F06B
:10035800000E046E700E036E42EC05F00B0E0126C3
:10036800000E0222380E0124D96E040E0220DA6E25
:10037800DF50376EFCC501F0FDC502F0000E046EBB
:10038800700E036E42EC05F00C0E0126000E0222E0
:10039800380E0124D96E040E0220DA6EDF50366E54
:1003A800FCC501F0FDC502F0000E046E700E036E70
:1003B80042EC05F00D0E0126000E0222380E012433
:1003C800D96E040E0220DA6EDF50356ED0D00500EB
:1003D800FCC501F0FDC502F0000E046E700E036E40
:1003E80042EC05F06F0E0126000E0222380E0124A1
:1003F800D96E040E0220DA6EDF06FCC501F0FDC5D9
:1004080002F0000E046E700E036E42EC05F0120E40
:100418000126000E0222380E1B6E040E1C6E0150BF
:100428001B2602501C2225EEFCF0DECF1DF0DDCF8E
:100438001EF0700E1D02F3CF1FF0F4CF20F01E0245
:10044800F35020266F0E1F26000E2022380E1F2480
:10045800D96E040E2020DA6EDF50216E2150030D74
:10046800F3501B26F4501C22020E1B24D96E000EDA
:100478001C20DA6EDF501F0BFF6EFCC501F0FDC5B6
:1004880002F0000E046E700E036E42EC05F0120EC0
:100498000126000E0222380E1B6E040E1C6E01503F
:1004A8001B2602501C2225EEFCF0DECF1DF0DDCF0E
:1004B8001EF0700E1D02F3CF1FF0F4CF20F01E02C5
:1004C800F35020266F0E1F26000E2022380E1F2400
:1004D800D96E040E2020DA6EDF50216E2150030DF4
:1004E800F3501B26F4501C22010E1B24D96E000E5B
:1004F8001C20DA6EDF50FE6EFCC501F0FDC502F06F
:10050800000E046E700E036E42EC05F0120E01260A
:10051800000E0222380E1B6E040E1C6E01501B26A4
:1005280002501C2225EEFCF0DECF1DF0DDCF1EF0C0
:10053800700E1D02F3CF1FF0F4CF20F01E02F3500F
:1005480020266F0E1F26000E2022380E1F24D96E7B
:10055800040E2020DA6EDF50216E2150030DF35077
:100568001B24D96EF4501C20DA6EDF50FD6EFCC5DA
:1005780001F0FDC502F0000E046E700E036E42EC31
:1005880005F06F0E0126000E0222380E0124D96EE6
:10059800040E0220DA6EDF50D8A419D736C0E0FF67
:1005A80035C0D8FF3753F28E1200F8C504F0F9C5EC
:1005B80005F0000E076E700E066E1CEC05F0380E86
:1005C8000424D96E040E0520DA6E0AC0DEFF0BC0C3
:1005D800DEFF0CC0DEFF0DC0DEFFF8C504F0F9C574
:1005E80005F0000E076E700E066E1CEC05F0040E8A
:1005F8000426000E0522380E0424D96E040E0520A8
:10060800DA6E0EC0DEFF0FC0DEFF10C0DEFF11C0C5
:10061800DEFFF8C504F0F9C505F0000E076E700E90
:10062800066E1CEC05F0080E0426000E0522380E96
:100638000424D96E040E0520DA6E000EDF6EF8C5AC
:1006480004F0F9C505F0000E076E700E066E1CEC7E
:1006580005F0090E0426000E0522380E0424D96E72
:10066800040E0520DA6E12C0DEFF13C0DDFFF8C5E8
:1006780004F0F9C505F0000E076E700E066E1CEC4E
:1006880005F0120E0426000E0522380E0424D96E39
:10069800040E0520DA6E12C0DFFFF8C504F0F9C5B4
:1006A80005F0000E076E700E066E1CEC05F0130EBA
:1006B8000426000E0522380E0424D96E040E0520E7
:1006C800DA6E1250146E1350156E166A176A15C03A
:1006D80014F016C015F017C016F0176A1450DF6E24
:1006E8001250146E1350156E166A176A110E05D043
:1006F800D8901732163215321432E82EF9D7F8C5C9
:1007080004F0F9C505F0000E076E700E066E1CECBD
:1007180005F0140E0426000E0522380E0424D96EA6
:10072800040E0520DA6EDF501418E00B1418DF6E83
:10073800F8C504F0F9C505F0000E076E700E066ED8
:100748001CEC05F06F0E0426000E0522380E04245A
:10075800D96E040E0520DA6E010EDF6E25EEF8F074
:10076800DE2A000EDE22DE22DE221200000E136ECA
:10077800000E146E000E156E000E166E010E176E2A
:10078800000E186E000E196E000E1A6E57D017C0A4
:1007980001F018C002F0000E046E700E036E42ECF9
:1007A80005F0040E0126000E0222380E0124D96E2F
:1007B800040E0220DA6E13C001F014C002F0000E1D
:1007C800046E700E036E42EC05F0040E0126000E56
:1007D8000222380E0124E16E040E0220E26EDE5081
:1007E800E65CDE50E658DE50E658DE50E658D8B0F3
:1007F8001FD017C001F018C002F0000E046E700E72
:10080800036E42EC05F0080E0126000E0222380E97
:100818000124D96E040E0220DA6EDF50D8A408D065
:1008280017C013F018C014F019C015F01AC016F04C
:10083800010E1726000E182219221A2225EEF8F0AA
:100848001750DE5C1850DE581950DE581A50DE5822
:10085800D8B09DD713C007F014C008F015C009F030
:1008680016C00AF0120081EC04F067EC05F0010EE6
:100878000A6E000E0B6E000E0C6E000E0D6E0A0E48
:100888000E6E000E0F6E000E106E000E116EAA0E88
:10089800126E0A0E136ED9EC02F0020E0A6E000EEA
:1008A8000B6E000E0C6E000E0D6E050E0E6E000E19
:1008B8000F6E000E106E000E116E5E0E126E0A0E96
:1008C800136ED9EC02F0030E0A6E000E0B6E000ECA
:1008D8000C6E000E0D6E070E0E6E000E0F6E000EE3
:1008E800106E000E116E100E126E0A0E136ED9ECF9
:1008F80002F07AEC05F000F0FED7000EE8CF38F4ED
:10090800000EE8CF39F4000EE8CF3AF4000EE8CF35
:100918003BF4000EE8CF3CF4000EE8CF3DF4000EA7
:10092800E8CF3EF4000EE8CF3FF4000EE8CF40F4E5
:10093800E40EE8CF41F40A0EE8CF42F4010EE8CF06
:10094800F8F5000EE8CFF9F5000EE8CFFAF5000E3D
:10095800E8CFFBF5000EE8CFFCF5000EE8CFFDF57B
:10096800000EE8CFFEF5000EE8CFFFF5380E046E56
:10097800000E056EC2EC04F0F28E120020EE18F0A4
:100988000450D9260550DA22DE6ADE6ADE6ADD6A9C
:10099800000E096E000E086E09BE06D009501EE151
:1009A800030E085CD8B0120008C006F009C007F0B2
:1009B800D89006360736D89006360736D8900636C9
:1009C800073606500424D96E07500520DA6EDE6A11
:1009D800DE6ADE6ADD6A084A092ADED7120004EEFA
:1009E80038F011EEC8F0EE6AE550E150FCE1E25053
:1009F800FAE100EE35F01F0EEE6AE806FDE15490CC
:100A08005492000137EF04F0959483948CA402D09B
:100A1800010E01D0000EFF0A036E03460346835001
:100A28000318FB0B0318836E00F000F000F0EED7FC
:100A380004500602F3CF08F0F4CF09F0045007027F
:100A4800F350092605500602F350092608C004F0A1
:100A580009C005F01200959283928CA202D0010E73
:100A680001D0000EFF0A026E024683500218FD0BE9
:100A78000218836E00F000F000F0EFD70150030277
:100A8800F3CF05F0F4CF06F001500402F350062628
:100A980002500302F350062605C001F006C002F01A
:100AA8001200959083908CA002D0010E01D0000E08
:100AB800FF0A016E83500118FE0B0118836E00F0C7
:100AC80000F000F0F0D7D59AD59CD596D550F80B04
:100AD8000209D56EF28AF294F28C120000F000F04E
:100AE80000F0000E016E000E026E1200FD0ED76EB1
:100AF8008F0ED66ED58E1200F294FD0ED76E8F0E25
:040B0800D66E120093
:020000040020DA
:08000000FFFFFFFFFFFFFFFF00
:020000040030CA
:0E000000FF021F1EFF8385FF0FC00FE00F40A1
:00000001FF
