:020000040000fa
:080000000002040000000000f2
:020000040000fa
:04000800d80200001a
:020000040000fa
:04000c00d802000016
:020000040000fa
:04001000d802000012
:020000040000fa
:04001400d80200000e
:020000040000fa
:04001800d80200000a
:020000040000fa
:04001c00d802000006
:020000040000fa
:04002000d802000002
:020000040000fa
:04002400d8020000fe
:020000040000fa
:04002800d8020000fa
:020000040000fa
:04002c00d8020000f6
:020000040000fa
:04003000d8020000f2
:020000040000fa
:04003400d8020000ee
:020000040000fa
:04003800d8020000ea
:020000040000fa
:04003c00d8020000e6
:020000040000fa
:04004000d8020000e2
:020000040000fa
:04004400d8020000de
:020000040000fa
:04004800d8020000da
:020000040000fa
:04004c00d8020000d6
:020000040000fa
:04005000d8020000d2
:020000040000fa
:04005400d8020000ce
:020000040000fa
:04005800d8020000ca
:020000040000fa
:04005c00d8020000c6
:020000040000fa
:04006000d8020000c2
:020000040000fa
:04006400d8020000be
:020000040000fa
:04006800d8020000ba
:020000040000fa
:04006c00d8020000b6
:020000040000fa
:04007000d8020000b2
:020000040000fa
:04007400d8020000ae
:020000040000fa
:04007800d8020000aa
:020000040000fa
:04007c00d8020000a6
:020000040000fa
:04008000d8020000a2
:020000040000fa
:04008400d80200009e
:020000040000fa
:04008800d80200009a
:020000040000fa
:04008c00d802000096
:020000040000fa
:04009000d802000092
:020000040000fa
:04009400d80200008e
:020000040000fa
:04009800d80200008a
:020000040000fa
:04009c00d802000086
:020000040000fa
:0400a000d802000082
:020000040000fa
:0400a400d80200007e
:020000040000fa
:0400a800d80200007a
:020000040000fa
:0400ac00d802000076
:020000040000fa
:0400b000d802000072
:020000040000fa
:0400b400d80200006e
:020000040000fa
:0400b800d80200006a
:020000040000fa
:0400bc00d802000066
:020000040000fa
:0400c000d802000062
:020000040000fa
:0400c400d80200005e
:020000040000fa
:0400c800d80200005a
:020000040000fa
:0400cc00d802000056
:020000040000fa
:0400d000d802000052
:020000040000fa
:0400d400d80200004e
:020000040000fa
:0400d800d80200004a
:020000040000fa
:0400dc00d802000046
:020000040000fa
:0400e000d802000042
:020000040000fa
:0400e400d80200003e
:020000040000fa
:0400e800d80200003a
:020000040000fa
:0400ec00d802000036
:020000040000fa
:0400f000d802000032
:020000040000fa
:0400f400d80200002e
:020000040000fa
:0400f800d80200002a
:020000040000fa
:0400fc00d802000026
:020000040000fa
:04010000d802000021
:020000040000fa
:04010400d80200001d
:020000040000fa
:04010800d802000019
:020000040000fa
:04010c00d802000015
:020000040000fa
:04011000d802000011
:020000040000fa
:04011400d80200000d
:020000040000fa
:04011800d802000009
:020000040000fa
:04011c00d802000005
:020000040000fa
:04012000d802000001
:020000040000fa
:04012400d8020000fd
:020000040000fa
:04012800d8020000f9
:020000040000fa
:04012c00d8020000f5
:020000040000fa
:04013000d8020000f1
:020000040000fa
:04013400d8020000ed
:020000040000fa
:04020800d802000018
:020000040000fa
:04020c00d802000014
:020000040000fa
:04021000d802000010
:020000040000fa
:04021400d80200000c
:020000040000fa
:04021800d802000008
:020000040000fa
:04021c00d802000004
:020000040000fa
:04022000d802000000
:020000040000fa
:04022400d8020000fc
:020000040000fa
:04022800d8020000f8
:020000040000fa
:04022c00d8020000f4
:020000040000fa
:04023000d8020000f0
:020000040000fa
:04023400d8020000ec
:020000040000fa
:04023800d8020000e8
:020000040000fa
:04023c00d8020000e4
:020000040000fa
:04024000d8020000e0
:020000040000fa
:04024400d8020000dc
:020000040000fa
:04024800d8020000d8
:020000040000fa
:04024c00d8020000d4
:020000040000fa
:04025000d8020000d0
:020000040000fa
:04025400d8020000cc
:020000040000fa
:04025800d8020000c8
:020000040000fa
:04025c00d8020000c4
:020000040000fa
:04026000d8020000c0
:020000040000fa
:04026400d8020000bc
:020000040000fa
:04026800d8020000b8
:020000040000fa
:04026c00d8020000b4
:020000040000fa
:04027000d8020000b0
:020000040000fa
:04027400d8020000ac
:020000040000fa
:04027800d8020000a8
:020000040000fa
:04027c00d8020000a4
:020000040000fa
:04028000d8020000a0
:020000040000fa
:04028400d80200009c
:020000040000fa
:04028800d802000098
:020000040000fa
:04028c00d802000094
:020000040000fa
:04029000d802000090
:020000040000fa
:04029400d80200008c
:020000040000fa
:04029800d802000088
:020000040000fa
:04029c00d802000084
:020000040000fa
:0402a000d802000080
:020000040000fa
:0402a400d80200007c
:020000040000fa
:0402a800d802000078
:020000040000fa
:0402ac00d802000074
:020000040000fa
:0402b000d802000070
:020000040000fa
:0402b400d80200006c
:020000040000fa
:0402b800d802000068
:020000040000fa
:0402bc00d802000064
:020000040000fa
:0402c000d802000060
:020000040000fa
:0402c400d80200005c
:020000040000fa
:0402c800d802000058
:020000040000fa
:0402cc00d802000054
:020000040000fa
:0402d000d802000050
:020000040000fa
:0402d400d80200004c
:020000040000fa
:0402d800d802000048
:020000040000fa
:0402dc00d802000044
:020000040000fa
:0402e000d802000040
:020000040000fa
:0402e400d80200003c
:020000040000fa
:0402e800d802000038
:020000040000fa
:0402ec00d802000034
:020000040000fa
:0402f000d802000030
:020000040000fa
:0402f400d80200002c
:020000040000fa
:0402f800d802000028
:020000040000fa
:0402fc00d802000024
:020000040000fa
:04030000d80200001f
:020000040000fa
:04030400d80200001b
:020000040000fa
:04030800d802000017
:020000040000fa
:04030c00d802000013
:020000040000fa
:04031000d80200000f
:020000040000fa
:04031400d80200000b
:020000040000fa
:04031800d802000007
:020000040000fa
:04031c00d802000003
:020000040000fa
:04032000d8020000ff
:020000040000fa
:04032400d8020000fb
:020000040000fa
:04032800d8020000f7
:020000040000fa
:04032c00d8020000f3
:020000040000fa
:04033000d8020000ef
:020000040000fa
:04033400d8020000eb
:020000040000fa
:100400006fab20000e7f22000e018800000000006c
:10041000000020000000e000020032000001200087
:100420002002880014000700630007000000e000bd
:1004300003003a0080822000010020000200370003
:100440000000200001002000810f70000100320038
:1004500014000700000020000000e000020032004d
:100460000000020000000000f6070200000000008b
:100470000040da000000fe004440a9000000200017
:100480000000e0000300320000002000a00188000e
:100490004440a800000006008a1f78008b1f7800e7
:1004a0000000060091018800800478000000eb0045
:1004b0001a003700e284440032a0b4009905ba0063
:1004c000e284440032a0b4009906ba00e2844400f9
:1004d00032a0b4000006eb00476fde00fd07b2005b
:1004e000636ce10003003a00ebff07000000eb0043
:1004f0000a003700606ce10004003a00005deb0088
:100500008b05e900fdff3e00040037006168e10053
:10051000010032000086eb000b00070019c7ba008b
:100520001905ba000e04e00003003a000a00e000da
:10053000e0ff3a0000000600fe07b2009e018800be
:100540008a047800f5ff3700395dba008b05e900b1
:100550000c003200295dba008b05e900080032006a
:100560000c00e00003003a00e284440032a0b40032
:10057000f5ff370019ddba008b05e900faff3a00f4
:100580008904e800e184440032a0b40000000600c1
:10059000c2040400000000001c0804000000000069
:1005a00020080400000000002408040000000000ef
:1005b0000040da000000fe0000000500889fbe0039
:1005c0008a9fbe008c1f7800970007009e003300b2
:1005d00003866c006450e1002e0032006420e100cc
:1005e000330032006150e1002f0032006120e10051
:1005f0003100320085855500eb07b000090020006e
:1006000008042000050037000804440089844c00d9
:100610000a0031000603430087834b0000015300aa
:1006200081815b00f8ff33000203be000800a000d8
:100630000804440089844c00f6ff3900c639dd0007
:100640008301730001003200130020008904d100ef
:100650000884d3000998a300050032000800a70011
:100660000300a0008904d1000884d3008b05e800b2
:100670008904d1000884d3000001eb000281d2007c
:100680002e00070001f0a1000cf0a70001f0a0006f
:10069000760037006420e100780032000801be00d7
:1006a0000200be00f7ff37006120e1007300320056
:1006b0006000b800f3ff37000000200001f82700b9
:1006c000f0ff37000001be00420007000470a700e1
:1006d00003f0a10003f8a30013003a006509b1007c
:1006e00010003200090035006928e10002003500e1
:1006f0000100280000000500000040008180480043
:100700008502e900fcff3a0000000600f88f420075
:10071000050035008100d1000080d3008502e8008b
:10072000fcff3a00000006008000eb00000005001e
:100730004f89de00820178005300370081002000dd
:10074000618055000b003d000b00200061fe2f0072
:100750000100e1001d00340082817100610164002c
:100760008904d1000884d3000000e800faff3a00b1
:10077000710020006100640003007000020060004e
:100780000900320061044400e0844c000988a5009f
:10079000050032008b05e8006808e10002003a001d
:1007a0008904d1000884d300f20f20000258e10030
:1007b00005003d00c75ddd00f907b20089807500c6
:1007c00008007800000006000bf827008b00780076
:1007d00000000500c70ade00f107b200f50fb20005
:1007e00008003200e1cf4200020032000170a00098
:1007f00024000500810f700001003200040805008c
:1008000044000500810f700002003a00140005004a
:100810008502e9000000400081c04800fcff3b0069
:100820000170a000240005000004be00e9ff0700dd
:100830000003be000405be000200be00e5ff070085
:10084000844f7500000006000200be006450e10005
:10085000050036006420e100020036000968a300ac
:1008600001003a000800be000160a0004f067800b9
:100870004f05be004f04be0000000600f0ff2f0031
:10088000f1ff2700f9ff3700881f78000304780084
:100890000300e00007003d0060001000e080180049
:1008a00060011900e081190002003b0001f02d00f9
:1008b000030037000400070008f0a70001f0a000c3
:1008c0004f04780000000600889fbe008a9fbe008b
:1008d0000082700004027100048271002600320060
:1008e0000004be000200be006011b8006b092000c9
:1008f000950220000182cf000a0039000541b100b5
:100900000082cf00070039000541b1000982cf0005
:10091000040039000541b1000882cf000100390010
:100920000541b10005425200120032000a003b00ae
:1009300082817100610164008100d1000080d300d8
:100940008984d3000884d3008b05e8000442e800c2
:10095000f7ff3a00070037000804440089844c0080
:1009600000004800818048008b05e9000442e9004e
:10097000f9ff3a0071ff07004f05be004f04be00ab
:04098000000006006d
:020000040000fa
:100984000000fa0000000000feff37000000fa003b
:100994000000eb00a05588000000eb009055880093
:1009a4000004200000018800204c20000001780091
:1009b4008000eb000000eb005500070095000700e5
:1009c4000080fa00000006000000fa0005e1a8001b
:1009d4000080fa00000006000600fa0020079800d4
:1009e400ff3ffc000000eb00000f7800a1558000e1
:1009f400110798001a000700000f78009e0090006d
:100a0400a00820000088b900800078004080200001
:100a140000804000ae009000010878009e00900025
:100a2400a00820000088b900800078000080200021
:100a340000804000ae009000950007001e00780082
:100a44001100200021009800110020001e007800f1
:100a54008f0007000000fc000080fa000000060080
:100a64000400fa000000eb00100798000000eb00ff
:100a7400000f78001e0090008000e8009055800070
:100a840000017800110009008280d8008000fd0078
:100a9400100798009e009000a00820000088b9006c
:100aa40000007800e4004000008020000080400046
:100ab400100078000000e00006003a009e0090005c
:100ac400a00820000088b900800078000080200081
:100ad400008f40001e0078000000e000e3ff3200b9
:100ae4009e009000a15588001e0078000080fa0046
:100af400000006000000fa000080fa000000060072
:100b04000200fa00000f78000080fa0000000600de
:100b14000600fa00000f78001107980022079800d9
:100b240091558000a00820000088b900800078005a
:100b340000802000008040001e087800915580004d
:100b4400a00820000088b9008000780020802000e0
:100b5400008040009e0090000108780091558000bc
:100b6400a00820000088b900800078008088200058
:100b740000804000ae00900001087800915580008c
:100b8400a00820000088b900800078004080200080
:100b9400008040008000eb0001087800935580003d
:100ba40091558000a00820000088b900000078005a
:100bb40081082000808040000080200000804000e8
:100bc4001000780000017800a00820000098b90007
:100bd40080007800608020000080400002087800d7
:100be40091558000a00820000088b900800078009a
:100bf4006088200000804000110020000108780077
:100c0400905580000000e800905588000080fa00ac
:100c1400000006000000fa0081e0a8008200a9009c
:100c24008460a9009460a80021058000f0ff2800da
:100c34000080600000c0a000200588000421a900f5
:100c440021088000f0fc2f00008060000040a0001c
:100c540020088800200880004400de006340600013
:100c64000080fb00cf80de00b0fe07000001be0064
:100c740070c72c00b13223004ffe070090fe07001e
:100c840000007800100888000080fa0000000600c8
:100c94000400fa00000f7800110798001e0090006d
:100ca400e10f500012003a001e00780030809000de
:100cb4008000e9001e007800318098001e00780052
:100cc400308090009e0078006300400000004000e7
:100cd40061007800f00088008f1f78001e00780003
:100ce400308090000000e000efff3a00150037006c
:100cf4001e0078008000eb0031809800cf07780058
:100d04001e00780030809000f10080001e01780001
:100d1400630040000000400000004100010878002a
:100d24001e007800308090008000e8001e007800eb
:100d340031809800f00080000000e000efff3a00ee
:100d4400000000000080fa00000006000400fa0021
:100d5400000f7800110798001e0078009e00900094
:100d6400010878001e0078008000eb001100980054
:100d74001e0078008000eb00210098000080fa003b
:100d8400000006000200fa00000f7800ff3ffc009c
:100d94001e007800100078008000e9001e00780032
:100da400010878001e007800100078000000e000c0
:100db4001b003d001e00780010009000a15580002b
:100dc4001e01780063004000000040000000410064
:100dd400010878001e007800100090008000e800f0
:100de4005000200000017800110009008280d80022
:100df4008000fd00800078001e007800110098003b
:100e0400a1558000a00820000088b9008000780067
:100e1400408020000080400021002000010878006c
:100e24000000fc000080fa00000006000200fa0046
:100e3400000f7800ff3ffc001e00780010007800cf
:100e44008000e8001e007800010878001e00780089
:100e5400100078000000e00018003c001e0078003c
:100e6400200090009e0078006300400000004000d5
:100e7400e1007800a00820000088b9008000780014
:100e840040802000008040008000eb0001087800d2
:100e94001e007800200090008000e8005000200030
:100ea40000017800110009008280d8008000fd0054
:100eb400800078001e007800210098000000fc00eb
:100ec4000080fa00000006000200fa00000f78001b
:100ed4001e0078008080eb00610098001e007800fe
:100ee4008000eb00510098000080fa00000006002a
:100ef4000400fa00000f780021479800ff3ffc002f
:100f04001e007800500090009e0078002e41900052
:100f1400827078001e007800500090008000e80085
:100f2400a000200000017800110009008280d80090
:100f34008000fd00800078001e00780051009800b9
:100f44001e007800d00090001e0078006000900021
:100f5400808f500002003a00200020009efe07000f
:100f64000000fc000080fa00000006000400fa0003
:100f740010079800ff3ffc001e009000d000900076
:100f84001e00900060009000808f500002003a0024
:100f94002000200090fe07001e00900060009000da
:100fa4009e009000614f78001e0090006000900049
:100fb4008000e800a0002000000178001100090072
:100fc4008280d8008000fd00800078001e00900020
:100fd400610098000000eb007ffe07000000fc00a9
:100fe4000080fa00000006000000fa0067fe070017
:100ff400c081200000017800510020002000200062
:10100400c3fe070000822000000178004100200098
:1010140030002000befe070040822000000178005e
:101024006100200040002000b9fe070066fe0700b2
:10103400ffff37000000fa00ffff37000000fa004e
:0c104400ffff37000000fa00ffff37003c
:020000040000fa
:1010500000080000b60200000000000000000000d0
:00000001FF
