:020000040000fa
:080000000002040000000000f2
:020000040000fa
:04000800d002000022
:020000040000fa
:04000c00d00200001e
:020000040000fa
:04001000d00200001a
:020000040000fa
:04001400d002000016
:020000040000fa
:04001800d002000012
:020000040000fa
:04001c00d00200000e
:020000040000fa
:04002000d00200000a
:020000040000fa
:04002400d002000006
:020000040000fa
:04002800d002000002
:020000040000fa
:04002c00d0020000fe
:020000040000fa
:04003000d0020000fa
:020000040000fa
:04003400e2030000e3
:020000040000fa
:04003800d0020000f2
:020000040000fa
:04003c00d0020000ee
:020000040000fa
:04004000d0020000ea
:020000040000fa
:04004400d0020000e6
:020000040000fa
:04004800d0020000e2
:020000040000fa
:04004c00d0020000de
:020000040000fa
:04005000d0020000da
:020000040000fa
:04005400d0020000d6
:020000040000fa
:04005800d0020000d2
:020000040000fa
:04005c00d0020000ce
:020000040000fa
:04006000d0020000ca
:020000040000fa
:04006400d0020000c6
:020000040000fa
:04006800d0020000c2
:020000040000fa
:04006c00d0020000be
:020000040000fa
:04007000d0020000ba
:020000040000fa
:04007400d0020000b6
:020000040000fa
:04007800d0020000b2
:020000040000fa
:04007c00d0020000ae
:020000040000fa
:04008000d0020000aa
:020000040000fa
:04008400d0020000a6
:020000040000fa
:04008800d0020000a2
:020000040000fa
:04008c00d00200009e
:020000040000fa
:04009000d00200009a
:020000040000fa
:04009400d002000096
:020000040000fa
:04009800d002000092
:020000040000fa
:04009c00d00200008e
:020000040000fa
:0400a000d00200008a
:020000040000fa
:0400a400d002000086
:020000040000fa
:0400a800d002000082
:020000040000fa
:0400ac00d00200007e
:020000040000fa
:0400b000d00200007a
:020000040000fa
:0400b400d002000076
:020000040000fa
:0400b800d002000072
:020000040000fa
:0400bc00d00200006e
:020000040000fa
:0400c000d00200006a
:020000040000fa
:0400c400d002000066
:020000040000fa
:0400c800d002000062
:020000040000fa
:0400cc00d00200005e
:020000040000fa
:0400d000d00200005a
:020000040000fa
:0400d400d002000056
:020000040000fa
:0400d800d002000052
:020000040000fa
:0400dc00d00200004e
:020000040000fa
:0400e000d00200004a
:020000040000fa
:0400e400d002000046
:020000040000fa
:0400e800d002000042
:020000040000fa
:0400ec00d00200003e
:020000040000fa
:0400f000d00200003a
:020000040000fa
:0400f400d002000036
:020000040000fa
:0400f800d002000032
:020000040000fa
:0400fc00d00200002e
:020000040000fa
:04010000d002000029
:020000040000fa
:04010400d002000025
:020000040000fa
:04010800d002000021
:020000040000fa
:04010c00d00200001d
:020000040000fa
:04011000d002000019
:020000040000fa
:04011400d002000015
:020000040000fa
:04011800d002000011
:020000040000fa
:04011c00d00200000d
:020000040000fa
:04012000d002000009
:020000040000fa
:04012400d002000005
:020000040000fa
:04012800d002000001
:020000040000fa
:04012c00d0020000fd
:020000040000fa
:04013000d0020000f9
:020000040000fa
:04013400d0020000f5
:020000040000fa
:04020800d002000020
:020000040000fa
:04020c00d00200001c
:020000040000fa
:04021000d002000018
:020000040000fa
:04021400d002000014
:020000040000fa
:04021800d002000010
:020000040000fa
:04021c00d00200000c
:020000040000fa
:04022000d002000008
:020000040000fa
:04022400d002000004
:020000040000fa
:04022800d002000000
:020000040000fa
:04022c00d0020000fc
:020000040000fa
:04023000d0020000f8
:020000040000fa
:04023400d0020000f4
:020000040000fa
:04023800d0020000f0
:020000040000fa
:04023c00d0020000ec
:020000040000fa
:04024000d0020000e8
:020000040000fa
:04024400d0020000e4
:020000040000fa
:04024800d0020000e0
:020000040000fa
:04024c00d0020000dc
:020000040000fa
:04025000d0020000d8
:020000040000fa
:04025400d0020000d4
:020000040000fa
:04025800d0020000d0
:020000040000fa
:04025c00d0020000cc
:020000040000fa
:04026000d0020000c8
:020000040000fa
:04026400d0020000c4
:020000040000fa
:04026800d0020000c0
:020000040000fa
:04026c00d0020000bc
:020000040000fa
:04027000d0020000b8
:020000040000fa
:04027400d0020000b4
:020000040000fa
:04027800d0020000b0
:020000040000fa
:04027c00d0020000ac
:020000040000fa
:04028000d0020000a8
:020000040000fa
:04028400d0020000a4
:020000040000fa
:04028800d0020000a0
:020000040000fa
:04028c00d00200009c
:020000040000fa
:04029000d002000098
:020000040000fa
:04029400d002000094
:020000040000fa
:04029800d002000090
:020000040000fa
:04029c00d00200008c
:020000040000fa
:0402a000d002000088
:020000040000fa
:0402a400d002000084
:020000040000fa
:0402a800d002000080
:020000040000fa
:0402ac00d00200007c
:020000040000fa
:0402b000d002000078
:020000040000fa
:0402b400d002000074
:020000040000fa
:0402b800d002000070
:020000040000fa
:0402bc00d00200006c
:020000040000fa
:0402c000d002000068
:020000040000fa
:0402c400d002000064
:020000040000fa
:0402c800d002000060
:020000040000fa
:0402cc00d00200005c
:020000040000fa
:0402d000d002000058
:020000040000fa
:0402d400d002000054
:020000040000fa
:0402d800d002000050
:020000040000fa
:0402dc00d00200004c
:020000040000fa
:0402e000d002000048
:020000040000fa
:0402e400d002000044
:020000040000fa
:0402e800d002000040
:020000040000fa
:0402ec00d00200003c
:020000040000fa
:0402f000d002000038
:020000040000fa
:0402f400d002000034
:020000040000fa
:0402f800d002000030
:020000040000fa
:0402fc00d00200002c
:020000040000fa
:04030000d002000027
:020000040000fa
:04030400d002000023
:020000040000fa
:04030800d00200001f
:020000040000fa
:04030c00d00200001b
:020000040000fa
:04031000d002000017
:020000040000fa
:04031400d002000013
:020000040000fa
:04031800d00200000f
:020000040000fa
:04031c00d00200000b
:020000040000fa
:04032000d002000007
:020000040000fa
:04032400d002000003
:020000040000fa
:04032800d0020000ff
:020000040000fa
:04032c00d0020000fb
:020000040000fa
:04033000d0020000f7
:020000040000fa
:04033400d0020000f3
:020000040000fa
:100400000f8620000e7f22000e01880000000000f1
:10041000000020000000e000020032000001200087
:10042000200288000e000700205e2000010020004e
:10043000810f70000100320014000700000020004e
:100440000000e00002003200000002000000000096
:10045000d4020200000000000040da000000fe00ac
:100460004440a900000020000000e000030032002a
:1004700000002000a00188004440a8000000060001
:100480008a1f78008b1f7800000006009101880009
:10049000800478000000eb001a003700e28444007a
:1004a00032a0b4009905ba00e284440032a0b4003e
:1004b0009906ba00e284440032a0b4000006eb00c2
:1004c000476fde00fd07b200636ce10003003a00f5
:1004d000ebff07000000eb000a003700606ce10052
:1004e00004003a00005deb008b05e900fdff3e00d3
:1004f000040037006168e100010032000086eb0073
:100500000b00070019c7ba001905ba000e04e00075
:1005100003003a000a00e000e0ff3a000000060095
:10052000fe07b2009e0188008a047800f5ff3700bc
:10053000395dba008b05e9000c003200295dba0074
:100540008b05e900080032000c00e00003003a00cf
:10055000e284440032a0b400f5ff370019ddba0090
:100560008b05e900faff3a008904e800e1844400c1
:1005700032a0b400000006003005040000000000b6
:100580005205040000000000760504000000000091
:100590009a05040000000000be05040000000000f1
:0805a0000040da000000fe003b
:020000040000fa
:1005a8000000fa005d00070070000700e0ff21006e
:1005b800000188000053200000017800510020004d
:1005c80010002000150007002055200000017800c9
:1005d8004100200020002000100007006057200084
:1005e8000001780031002000300020000b000700d7
:1005f800a0592000000178002100200040002000c0
:1006080006000700e05b20000001780011002000d0
:100618005000200001000700ffff37000600fa0025
:10062800000f78001107980022079800004080000a
:100638006e00b900800078006080200000804000d3
:100648001e087800004080006e00b9008000780025
:1006580080802000008040009e0090000108780003
:10066800004080006e00b9008000780020812000e2
:1006780000804000ae009000010878000040800033
:100688006e00b90080007800a08020000080400043
:100698008000eb0001087800004080000000e800be
:1006a800004088000080fa00000006000200fa00fe
:1006b8001e0078000080fa00000006000000fa0022
:1006c800204080008000e8005000200000017800f1
:1006d800110009008280d8008000fd000080fa0027
:1006e800000006000200fa00000f78009e00780063
:1006f800214088001e0078006e00b90000007800d4
:10070800ec0040006080200000804000100078006d
:10071800000001000080fa00000006000000fa0056
:10072800c002a900c022a900c042a900c062a90055
:10073800c082a9000080fa00000006000000fa004c
:1007480081e0a8008200a9008400a9009400a80004
:100758002105800080ff2f00008060000000a000bd
:10076800200588000080fa00000006000000fa005a
:100778008200a9008460a9009460a8002105800077
:10078800f0ff28000080600000c0a000200588005d
:100798000421a90021088000f0fc2f0000806000df
:1007a8002008880080a92300100888000021ef0095
:1007b80005e1a8000080fa00000006003600f800f5
:1007c800809fbe00821f78000000fa00ff3ffc00f7
:1007d8008460a900204080006e00b9000000780005
:1007e800e400400060802000008040001000780095
:1007f8000000e0001c003a00204080000e01780054
:100808006e00b90080007800e08020000080400081
:1008180002087800204080006e00b900800078004f
:10082800a0802000008040002100200001087800fe
:1008380011028000f0f12f00008060001002880093
:1008480000000000204080006e00b9000000780021
:10085800ec0040006080200000804000100078001c
:100868000040010044003700204080006e00b900bd
:1008780000007800e4004000608020000080400014
:1008880010007800e20f50003b003a002040800042
:100898000e0178006e00b90080007800e08020002a
:1008a8000080400002087800204080006e00b900f7
:1008b80080007800a0802000008040001100200007
:1008c80001087800204080008000e80050002000e7
:1008d80000017800110009008280d8008000fd0026
:1008e80020408800204080006e00b9000000780099
:1008f800e800400060802000008040001000780080
:1009080090007800f07f2000808f50001a00360099
:10091800204080006e00b90000007800e800400028
:10092800608020000080400010007800900078006f
:1009380000018000808f50000f00310020408000af
:100948006e00b90000007800e800400060802000d8
:1009580000804000100078000007780020408000e8
:100968006e00b90080007800a08020000080400060
:1009780021002000010878000000fc000080fa0037
:100988004f0178004f00be003600f9000040060015
:100998000400fa00100798000000eb00000f780030
:1009a8000c0037001e0078006e00b9008000780047
:1009b8006080200000804000900078001e009000b9
:1009c800808f500002003a001e00780006003700b1
:1009d8001e0fe8009e00780000408000808f5000c5
:1009e800f0ff3900500020000080fa0000000600e7
:1009f8000600fa00200798000000eb00000f7800be
:100a08000c0037000000eb001007980003003700c7
:100a18001e0090000000e800100798002e009000cb
:100a28008000d1001e009000808f5000f8ff3e002b
:100a38001e0fe800ae009000600020000001780062
:100a4800110009008280d8009e0f5000edff3e0083
:100a58000080fa00000006000000fa00101680006e
:100a68006100600000f0a7000000ea000000e90053
:100a78004f00de00004078000080fb00610060004d
:100a8800111680000100a1000100700010168800f6
:100a9800204e2000d6ff0700f0ff37000000fa00c4
:100aa800101680006200600000f0a7000000ea0055
:100ab8000000e9004f00de00004078000080fb00e5
:100ac8006100600000004000111680000110a100c4
:100ad8000100700010168800204e2000c4ff070097
:100ae800efff37000000fa00101680006400600075
:100af80000f0a7000000ea000000e9004f00de0057
:100b0800004078000080fb00610060004200dd00ca
:100b1800111680000120a100010070001016880045
:100b2800204e2000b2ff0700efff37000000fa0058
:100b3800101680006800600000f0a7000000ea00be
:100b48000000e9004f00de00004078000080fb0054
:100b5800610060004300dd00111680000130a10033
:100b68000100700010168800204e2000a0ff07002a
:100b7800efff37000000fa001016800070006000d8
:100b880000f0a7000000ea000000e9004f00de00c6
:100b9800004078000080fb00610060004400dd0038
:100ba800111680000140a100010070001016880095
:0c0bb800204e20008eff0700efff3700ea
:020000040000fa
:100bc400060800005a0000000000000000080000b1
:100bd40004000000000000000408000002000000ff
:0c0be400020000000400000000000000ff
:00000001FF
