:100000000C9434000C9451000C9451000C94510049
:100010000C9451000C9451000C9451000C9451001C
:100020000C9451000C9451000C9451000C94D50C7C
:100030000C9451000C9451000C9451000C945100FC
:100040000C9451000C9451000C9451000C945100EC
:100050000C9451000C9451000C9451000C945100DC
:100060000C9451000C94510011241FBECFEFD8E026
:10007000DEBFCDBF11E0A0E0B1E0E0E7FDE102C0EE
:1000800005900D92AC31B107D9F717E0ACE1B1E0C2
:1000900001C01D92AC36B107E1F70E9446010C94F5
:1000A000B60E0C94000080E480937C0087E8809377
:1000B0007A00089590917C008770987F892B8093B7
:1000C0007C0080917A00806480937A0080917A002D
:1000D00086FDFCCF2091780030917900C901089508
:1000E00089B1809581700895AF92BF92CF92DF92CF
:1000F000EF92FF920F931F93CF93DF9354E0F52E6F
:1001000048E0A42EC8ECD0E033E0B32E20E1D22E9C
:1001100095E0C92E11E002E080E2E82E80916007B0
:100120009091610760E070E04FEF5FEF20E00E9488
:10013000620920911C01223051F1233030F4222336
:1001400069F0213009F05FC00EC0243009F43DC0D1
:10015000243088F1253009F056C04FC048995FC05F
:1001600085B180274FC085B185B985B18E2585B908
:1001700080916207909163078634910518F485B1E8
:10018000822740C085B185B900931C013CC085B170
:100190008F2585B985B18A2585B988EE93E0FE0162
:1001A0003197F1F70197D9F785B185B985B185B94F
:1001B000B0921C0128C08091620790916307853638
:1001C000910548F0F0921C011EC080916207909149
:1001D0006307899718F085B1812714C085B18D25F3
:1001E00085B988EE93E0FE013197F1F70197D9F7D1
:1001F00085B185B9C0921C0106C085B185B985B1AC
:1002000085B985B185B980915E0790915F0760E0FF
:1002100070E040E050E020E00E94BB0A7FCF85B153
:1002200085B910931C01EFCF80915E0790915F0715
:1002300060E070E04FEF5FEF20E00E94620980E035
:100240000E945A009093650780936407A0E0B0E095
:10025000BC01CD010E945D0D20EC3EE34AEF5EE360
:100260000E94C30D0E94260E0E94310D70936307F9
:1002700060936207809160079091610760E070E091
:1002800040E050E020E00E94BB0ACECFAF92BF9288
:10029000CF92DF92EF92FF920F938FE384B91AB857
:1002A00010921C0180E480937C0087E880937A00A0
:1002B00081E061E00E94EA0B90935F0780935E0704
:1002C00081E060E00E94EA0B9093610780936007F1
:1002D00084E191E060E071E044E650E020E030E04D
:1002E00003E0EE24FF24CC24DD24AA24BB240E94B6
:1002F0004A0784E790E06CE071E044E650E020E0DB
:1003000030E007E00E944A070E94740880E090E015
:100310000F91FF90EF90DF90CF90BF90AF90089536
:10032000089510921E0110921D0108952CED35E0E4
:1003300080911D0190911E01281B390BC901089560
:100340000F931F93CF93DF938C010E9475028091CE
:100350001D0190911E019801280F391F45E02C3D89
:10036000340758F48217930740F4EC01C15EDE4F66
:1003700030931E0120931D0102C0C0E0D0E00E9416
:100380004605CE01DF91CF911F910F910895FC0199
:100390009C012D5F3F4F328321838FEF9FEF94832A
:1003A0008383368325833087278310820895FC0159
:1003B000118610860895CF93DF93AC01DB01EC0129
:1003C00029813A81F9018281938113969C938E93BE
:1003D000129789819A8115969C938E931497028027
:1003E000F381E02D75836483E9017B836A83FA01DD
:1003F0007283618319965C934E93189780818F5F07
:100400008083DF91CF910895CF93DF939C01EB011F
:10041000488159818FEF4F3F580721F4F901A78197
:10042000B08510C0D901139604C012960D90BC91EE
:10043000A02D1296ED91FC91139780819181481720
:10044000590798F71296ED91FC911397FB83EA8375
:10045000D583C483BD83AC831396DC93CE9312976C
:1004600039872887F90180818F5F8083DF91CF9161
:100470000895CF93DF93DC011296ED91FC911397D1
:1004800014968D919C911597958384831496CD91A4
:10049000DC911597FB83EA831896ED91FC911997EF
:1004A000818192818A179B0711F4D283C1831996A7
:1004B0001C921E921897808181508083DF91CF918A
:1004C0000895FC01828593858555974059F4848968
:1004D000958927E08334920729F020E0892B19F4CD
:1004E00021E001C020E0822F0895809102078F5FF4
:1004F0008093020708950FB6F8940F922091000799
:10050000309101070F900FBEC90108952091000797
:1005100030910107C90108958091040708958091E1
:100520000207882351F081E08093FE0608958091B0
:10053000FD0681508093FD0601C099E0E091FD0623
:10054000E99FF0011124E75FF84F8081882379F358
:100550009091FD0689E0989FD0011124A75FB84FC4
:100560001196ED91FC9112970280F381E02D129685
:10057000FC93EE931197CD010396E817F90731F438
:100580008281938112969C938E9311971196ED918F
:10059000FC911297868197819093FC068093FB06CD
:1005A0000895FC018091FF0680838091000790915F
:1005B0000107928381830895FC01DB010FB6F89453
:1005C0000F924D915C9111978FEF4F3F580761F15A
:1005D0009091FF068081981749F020910007309193
:1005E0000107818192812817390700F58091000762
:1005F0009091010721813281821B930B841795070B
:10060000A8F48091000790910107281B390B240F53
:10061000351F2D933C938091FF06808380910007C6
:10062000909101079283818380E001C081E00F9067
:100630000FBE089581E08093FE060895009729F487
:10064000E091FB06F091FC0601C0FC018789908DCA
:100650009C01F90120E030E003C031962F5F3F4F4D
:100660008081853AD1F3822F08952091FB06309145
:10067000FC06C90108950F931F93CF93DF93EC01FC
:10068000009709F19E8989A19817E9F08E010E5F04
:100690001F4FC8010E94390229A12E8B84E090E0EF
:1006A000821B91099D878C878091FD06821710F42B
:1006B0002093FD0689E0289FC0011124875F984F91
:1006C000B8010E94DB01DF91CF911F910F91089536
:1006D0000F931F93CF93DF93EC01E091FB06F09112
:1006E000FC063E8986893817C0F5E091FB06F0913B
:1006F000FC06268984E090E0821B91099D878C8707
:1007000089E0389FC0011124875F984F2A853B8577
:1007100028173907E1F48E010E5F1F4FC8010E94B0
:100720003902E091FB06F091FC0696899E8B809140
:10073000FD06891710F49093FD0689E0989FC0018B
:100740001124875F984FB8010E94DB0106C0E09139
:10075000FB06F091FC0686898E8BDF91CF911F916D
:100760000F9108950F931F93CF93DF93FC010580A2
:10077000F681E02D06811781E8012C96CE010E94BA
:100780003902809102078823A9F4E8012296CE015C
:100790000E943902D80156969C918091FD068917D6
:1007A00010F49093FD0689E0989FC0011124875FA3
:1007B000984F02C083E497E0BE010E94DB01E09104
:1007C000FB06F091FC0620E0D80156969C918689A4
:1007D000981708F021E0822FDF91CF911F910F91A0
:1007E0000895FF920F931F93CF93DF938091020799
:1007F000882309F08FC0809100079091010701962E
:100800009093010780930007809100079091010762
:10081000892B79F520913F0730914007809141075E
:10082000909142079093400780933F07309342078F
:10083000209341078091FF068F5F8093FF06E09130
:100840003F07F09140078081882319F48FEF9FEFD5
:100850000CC0E0913F07F09140070580F681E02D44
:100860000680F781E02D8281938190931A01809315
:100870001901209100073091010780911901909191
:100880001A012817390708F44AC089E0F82EE091C8
:100890003F07F09140078081882339F48FEF9FEF65
:1008A00090931A01809319013AC0E0913F07F091AB
:1008B00040070580F681E02DC681D7812A813B81E2
:1008C00080910007909101078217930728F43093D5
:1008D0001A012093190123C08E010E5F1F4FC8011A
:1008E0000E9439028C899D89892B21F0CE010C96BA
:1008F0000E9439029E898091FD06891710F4909319
:10090000FD069F9DC0011124875F984FB8010E948A
:10091000DB01BDCF809103078F5F80930307DF91D9
:10092000CF911F910F91FF900895DF92EF92FF9268
:100930000F931F93CF93DF93EC018A859B85855599
:10094000974091F58C899D8927E08334920761F166
:10095000892B51F533C0DE88E091FB06F091FC064F
:10096000068992E0E92EF12CEC0EFD1EC7010E94D3
:1009700039026E898091FD06861710F46093FD069A
:1009800010E0D01608F011E089E0689FC001112442
:10099000875F984FB7010E94DB0107C02C9683E464
:1009A00097E0BE010E94DB0110E0812FDF91CF9123
:1009B0001F910F91FF90EF90DF90089580910207B3
:1009C000882349F2EBCFCF93DF93EC01E091FB0654
:1009D000F091FC0693838283809100079091010738
:1009E000C817D90768F48091410790914207609138
:1009F000FB067091FC066E5F7F4F0E94040217C0D9
:100A000080913F07909140076091FB067091FC0632
:100A10006E5F7F4F0E9404028091190190911A012C
:100A2000C817D90720F4D0931A01C0931901DF9198
:100A3000CF910895CF93DF93EB016091FB06709106
:100A4000FC06645F7F4F0E9404028091FB06909138
:100A5000FC0602960E9439028FEFCF3FD80759F467
:100A60006091FB067091FC066E5F7F4F85E597E015
:100A70000E94DB0108C080910007909101078C0F54
:100A80009D1F0E94E304DF91CF910895CF92DF92E2
:100A9000FF920F931F93DF93CF930F92CDB7DEB7E3
:100AA0000FB6F8940F92809102078150809302074D
:100AB00080910207882309F058C080910407882399
:100AC00009F453C0198229E0F22E2DC0E0914807A5
:100AD000F0914907C680D780C6010C960E94390262
:100AE00086010E5F1F4FC8010E943902D60156963B
:100AF0009C918091FD06891710F49093FD069F9DAF
:100B0000C0011124875F984FB8010E94DB01E0917A
:100B1000FB06F091FC06D60156969C9186899817A3
:100B200010F0B1E0B98380914307882379F6809172
:100B30000307882341F40CC00E94F103809103074E
:100B4000815080930307809103078823A9F707C08A
:100B5000E981E13021F08091FE06813031F410927C
:100B6000FE060E94D80C81E001C080E00F900FBE0D
:100B70000F90CF91DF911F910F91FF90DF90CF9059
:100B800008950F931F93CF93DF93EC01009709F41F
:100B90003CC08091FB069091FC06C817D907A9F1CB
:100BA0000FB6F8940F928A859B8585559740F1F48E
:100BB0008C899D8927E083349207C1F0892BB1F499
:100BC00018C09093FD0689E0989FC0011124875FAB
:100BD000984FB8010E94DB01E091FB06F091FC0602
:100BE0009E898689981710F00E94D80C0F900FBE2E
:100BF0000CC08E010E5F1F4FC8010E9439029E89F2
:100C00008091FD068917E8F2DECFDF91CF911F9129
:100C10000F910895EF92FF920F931F93CF93DF935D
:100C20008C010FB6F8940F928091FB069091FC0610
:100C30000817190719F400E010E003C001151105A9
:100C400029F4C091FB06D091FC0601C0E80132E016
:100C5000E32EF12CEC0EFD1EC7010E9439028C8997
:100C60009D89892B21F0CE010C960E94390285E5E1
:100C700097E0B7010E94DB010F900FBE012BA1F49A
:100C800080910507882319F00E94D80C0DC090911F
:100C9000550780910407981729F41092FC061092CA
:100CA000FB0602C00E948F02DF91CF911F910F912E
:100CB000FF90EF9008950F931F93CF93DF93EC0174
:100CC0000097C9F0809102078F5F8093020700911F
:100CD0000007109101078091FB069091FC06029697
:100CE0000E943902CE01800F911F0E94E3040E94EE
:100CF0004605882311F40E94D80CDF91CF911F91F3
:100D00000F910895CF93DF93FC01EB0180910207CF
:100D10008F5F8093020720813181C20FD31F8091A2
:100D20000007909101078217930728F4C217D30791
:100D300028F020E00CC0C217D30740F080910007D4
:100D40009091010720E08C179D0708F421E0D183E2
:100D5000C083222351F08091FB069091FC060296FD
:100D60000E943902CE010E94E3040E9446058823B6
:100D700011F40E94D80CDF91CF910895EF92FF9269
:100D80000F931F93CF93DF938C010FB6F8940F92BC
:100D90008091FB069091FC060817190719F400E0F2
:100DA00010E003C00115110529F4C091FB06D09194
:100DB000FC0601C0E80142E0E42EF12CEC0EFD1E21
:100DC000C7010E9439028C899D89892B21F0CE01AF
:100DD0000C960E9439028CE497E0B7010E94DB0177
:100DE000809106078F5F80930607809107078F5FCA
:100DF000809307070F900FBE80910507882321F08D
:100E0000012B11F40E94D80CDF91CF911F910F910B
:100E1000FF90EF900895F894109205070E94790CC6
:100E200008950F931F9380910607882361F18091A5
:100E300002078F5F8093020710914C070E944605BE
:100E4000112309F10FB6F8940F92E0915107F09138
:100E5000520706811781C80102960E9439028091CB
:100E60000407815080930407809106078150809386
:100E700006070F900FBEF8018789908D0E949001A0
:100E8000C8010E94900180910907823060F20E949F
:100E9000D80CC9CF2F923F925F926F927F928F9220
:100EA0009F92AF92BF92CF92DF92EF92FF920F93F9
:100EB0001F93DF93CF9300D000D0CDB7DEB79A83D6
:100EC00089834B015A011901502E370182E290E0CB
:100ED0000E94A0018B839C838B819C81892B89F04C
:100EE000C114D10421F4C5010E94A0016C01EB8161
:100EF000FC81D08EC78AC114D10429F4CF010E948D
:100F000090018FEFDBC0C60165EA70E0A5010E9489
:100F1000A00E0894A108B108EB81FC81E788F08C51
:100F2000EA0CFB1CCF014996B40148E050E00E9456
:100F3000A70EEB81FC8110A2052DF3E0F51508F456
:100F400003E0EB81FC81068B01A362E0C62ED12C6D
:100F5000CE0EDF1EC6010E94D7018B819C810C96AC
:100F60000E94D7018B819C81FC019187808784E05E
:100F700090E0801B910995878487F38BE28BC701F2
:100F800069817A81A1010E94F70BEB81FC81918339
:100F900080836114710421F0CF01F3019183808378
:100FA0000FB6F8940F92809104078F5F8093040727
:100FB0008091FB069091FC06892BE1F5EB81FC8189
:100FC000F093FC06E093FB0680910407813009F062
:100FD00042C089E097E00E94C70182E197E00E9449
:100FE000C7018BE197E00E94C70184E297E00E946D
:100FF000C7015DE2E52E57E0F52EC7010E94C7014B
:1010000006E317E0C8010E94C70183E497E00E944D
:10101000C7018CE497E00E94C70185E597E00E9434
:10102000C701F0924007E0923F07109342070093F8
:10103000410711C080910507882369F4E091FB0600
:10104000F091FC068689581630F08B819C81909334
:10105000FC068093FB06EB81FC8196898091080752
:10106000891710F490930807809107078F5F80938A
:101070000707EB81FC8196898091FD06891710F4A2
:101080009093FD06EB81FC81868929E0829FC00157
:101090001124875F984FB6010E94DB010F900FBEAD
:1010A00080910507882349F0E091FB06F091FC064A
:1010B0008689851510F40E94D80C81E00F900F905E
:1010C0000F900F90CF91DF911F910F91FF90EF90B4
:1010D000DF90CF90BF90AF909F908F907F906F9058
:1010E0005F903F902F900895AF92BF92CF92DF9282
:1010F000EF92FF920F9381E197E064E171E044E6A3
:1011000050E020E030E000E0EE24FF24CC24DD2499
:10111000AA24BB240E944A07813049F4F8948093A2
:10112000050710920107109200070E943F0C0F91D3
:10113000FF90EF90DF90CF90BF90AF900895FC01AB
:101140000FB6F8940F92828D0F900FBE0895FC0198
:10115000828D0895FC01828D90E0882309F491E04E
:10116000892F0895FC01928D20E0838D981709F452
:1011700021E0822F08959C01809168079091690772
:10118000892B41F4709369076093680730936B076C
:1011900020936A070895CF93DF93EC0180916A074B
:1011A00090916B078C179D0721F41092690710929C
:1011B0006807888199810E949001CE010E94900168
:1011C000DF91CF9108950F931F93CF93DF93EC019D
:1011D000FB018A018A8D882381F14881598141155B
:1011E0005105A9F08C8D2E813F81280F311D3F8341
:1011F0002E838A819B812817390710F05F834E83E5
:101200004C8D6E817F81CF0150E00E94970E8A8DB8
:1012100081508A8F8D8D8F3F69F48885882361F096
:10122000CE0108960E94B203882331F081E0F801D4
:10123000808303C08F5F8D8F81E0DF91CF911F91FD
:101240000F9108950F931F93CF93DF93EC010FB687
:10125000F8940F928C010F5E1F4F0DC0898988236F
:1012600069F0C8010E94B203882311F00E941A039A
:101270008E8D81508E8F8E8D181684F38FEF8E8F0A
:101280000F900FBE0FB6F8940F928E01085F1F4F9C
:101290000DC08885882369F0C8010E94B2038823A5
:1012A00011F00E941A038D8D81508D8F8D8D18162F
:1012B00084F38FEF8D8F0F900FBEDF91CF911F9131
:1012C0000F9108957F928F929F92AF92BF92CF928B
:1012D000DF92EF92FF920F931F93DF93CF9300D093
:1012E00000D00F92CDB7DEB78C01962E872E5D838E
:1012F0004C83722E91E1C92ED12CC00ED11E20E05C
:101300007E010894E11CF11C84E0A82EB12CAC0EE7
:10131000BD1E01C021E00FB6F8940F92F801828D36
:10132000882309F448C0E680F78040815181411547
:101330005105B1F0848D9701280F311D3783268325
:10134000828193812817390710F057834683F8016B
:10135000448D66817781892D982D50E00E94970EEB
:101360007720C1F4F801828D8150828F8081918134
:10137000892B29F40E943503F80193838283F801B5
:1013800080858823A1F0C80108960E94B2038130AD
:1013900071F40BC0F801F782E6828189882339F065
:1013A000C6010E94B203882311F00E94D80C0F904E
:1013B0000FBE81E059C08C819D81892B19F40F905B
:1013C0000FBE51C0222319F4C7010E94D1020F9011
:1013D0000FBE0E9475020FB6F8940F92F801858D2A
:1013E0008F3F09F4158EF801868D8F3F09F4168E14
:1013F0000F900FBEC701B5010E94DC02882371F572
:101400000FB6F8940F92F801828D0F900FBE8823CB
:10141000F9F4F80180819181892B51F40FB6F89489
:101420000F92F801828193810E9468030F900FBE92
:101430006C817D81C6010E941A05C8010E942209A3
:101440000E944605882309F065CF0E94D80C62CF20
:10145000C8010E9422090E9446055CCFC8010E9473
:1014600022090E94460580E00F900F900F900F9088
:101470000F90CF91DF911F910F91FF90EF90DF9030
:10148000CF90BF90AF909F908F907F900895CF9313
:10149000DF93EC01842F4C8D442359F4888199818A
:1014A000892BD9F58A819B810E943B031B821A827A
:1014B00034C08823B1F48C819D8150E00E94970E46
:1014C0008C8D2C813D81280F311D3D832C838A8199
:1014D0009B812817390708F1888199819D838C8326
:1014E0001CC08E819F8150E00E94970E8C8D90E0F1
:1014F00044275527481B590B8E819F81840F951FC8
:101500009F838E83288139818217930730F48A81E3
:101510009B81840F951F9F838E838A8D8F5F8A8F17
:10152000DF91CF9108950F931F93CF93DF93EC0139
:101530008A019A8D8B8D981710F080E017C0CE012C
:10154000422F0E94470A8E8D8F3F69F48989882334
:1015500061F0CE0141960E94B203882331F081E010
:10156000F801808303C08F5F8E8F81E0DF91CF9180
:101570001F910F9108957F928F929F92AF92BF9289
:10158000CF92DF92EF92FF920F931F93DF93CF934F
:1015900000D000D00F92CDB7DEB78C016B015D8318
:1015A0004C83722E48E0E42EF12CE80EF91E20E068
:1015B0005E010894A11CB11C34E0832E912C8C0E8A
:1015C0009D1E01C021E00FB6F8940F92F801928D94
:1015D000838D9817A8F4C801B601472D0E94470AC9
:1015E000F8018189882341F0C80141960E94B20325
:1015F000813011F40E94D80C0F900FBE81E04CC0D6
:101600008C819D81892B19F40F900FBE44C0222339
:1016100019F4C5010E94D1020F900FBE0E947502FD
:101620000FB6F8940F92F801858D8F3F09F4158E4F
:10163000F801868D8F3F09F4168E0F900FBEC501FD
:10164000B4010E94DC02882309F50FB6F8940F92CA
:10165000F801928D0F900FBEF801838D981781F4D9
:101660006C817D81C7010E941A05C8010E94220970
:101670000E944605882309F0A5CF0E94D80CA2CF6E
:10168000C8010E9422090E9446059CCFC8010E9401
:1016900022090E94460580E00F900F900F900F9056
:1016A0000F90CF91DF911F910F91FF90EF90DF90FE
:1016B000CF90BF90AF909F908F907F900895CF93E1
:1016C000DF938FE190E00E94A001EC010097F9F018
:1016D0001B821A82198218821D821C821F821E821E
:1016E0001A8E81E08B8F1C8E8FEF8D8F8E8FCE01A7
:1016F00008960E94C701CE0141960E94C701CE0103
:1017000060E070E040E050E020E00E94BB0ACE01C3
:10171000DF91CF910895AF92BF92CF92DF92EF9277
:10172000FF920F931F93CF93DF93B82EA62E88239B
:1017300009F442C08FE190E00E94A001EC01009703
:10174000D9F1EB2CFF24CA2CDD24CE9C8001CF9C48
:10175000100DDE9C100D1124C80101960E94A001FD
:101760009C0199838883009721F1080F191F1B831F
:101770000A831A8E9D838C830894E108F108EC9CFF
:10178000C001ED9C900DFC9C900D1124280F391F79
:101790003F832E83BB8EAC8E8FEF8D8F8E8FCE01CD
:1017A00008960E94C701CE0141960E94C7019E0182
:1017B00005C0CE010E94900120E030E0C901DF9118
:1017C000CF911F910F91FF90EF90DF90CF90BF903E
:1017D000AF9008951F93162F60E042E00E948B0B9C
:1017E000FC01009709F0128FCF011F910895FC01B1
:1017F00091E1908322E2229383E382936293729336
:10180000129280E88293129282E0829383E0829324
:1018100084E0829385E0829386E0829387E08293DE
:1018200088E0829389E0829380E18293929382E1BF
:10183000829383E1829384E1829385E1829386E1BE
:10184000829387E1829388E1829389E1829380E2A7
:10185000829381E28293229383E282934293529312
:1018600086E2829387E2829388E2829389E282937E
:1018700080E3829381E382933197CF0108951092A0
:1018800089008CE7809388008BE080938100EFE6ED
:10189000F0E0808182608083A091FB06B091FC061D
:1018A000CD91CDBFDD91DEBFFF91EF91DF91CF9163
:1018B000BF91AF919F918F917F916F915F914F9168
:1018C0003F912F911F910F91FF90EF90DF90CF905C
:1018D000BF90AF909F908F907F906F905F904F9050
:1018E0003F902F901F900F900FBE0F90089581E0B2
:1018F000089508950F920FB6F8940F921F92112435
:101900002F923F924F925F926F927F928F929F920F
:10191000AF92BF92CF92DF92EF92FF920F931F93FD
:101920002F933F934F935F936F937F938F939F93E7
:10193000AF93BF93CF93DF93EF93FF93A091FB06F9
:10194000B091FC060DB60D920EB60D920E94F103F9
:101950000E948F02A091FB06B091FC06CD91CDBFF5
:10196000DD91DEBFFF91EF91DF91CF91BF91AF91FC
:101970009F918F917F916F915F914F913F912F91A7
:101980001F910F91FF90EF90DF90CF90BF90AF909D
:101990009F908F907F906F905F904F903F902F908F
:1019A0001F900F900FBE0F9008950E947A0C18950B
:1019B0000F920FB6F8940F921F9211242F923F921C
:1019C0004F925F926F927F928F929F92AF92BF924F
:1019D000CF92DF92EF92FF920F931F932F933F933B
:1019E0004F935F936F937F938F939F93AF93BF9327
:1019F000CF93DF93EF93FF93A091FB06B091FC068A
:101A00000DB60D920EB60D920E948F02A091FB06AC
:101A1000B091FC06CD91CDBFDD91DEBFFF91EF917E
:101A2000DF91CF91BF91AF919F918F917F916F91F6
:101A30005F914F913F912F911F910F91FF90EF90E8
:101A4000DF90CF90BF90AF909F908F907F906F90DE
:101A50005F904F903F902F901F900F900FBE0F9070
:101A6000089570D088F09F5790F0B92F9927B751FB
:101A7000A0F0D1F0660F771F881F991F1AF0BA9552
:101A8000C9F712C0B13081F077D0B1E0089574C0C9
:101A9000672F782F8827B85F39F0B93FCCF3869548
:101AA00077956795B395D9F73EF4909580957095A5
:101AB00061957F4F8F4F9F4F0895E89409C097FB22
:101AC0003EF490958095709561957F4F8F4F9F4F15
:101AD0009923A9F0F92F96E9BB279395F695879559
:101AE00077956795B795F111F8CFFAF4BB0F11F41C
:101AF00060FF1BC06F5F7F4F8F4F9F4F16C08823C3
:101B000011F096E911C0772321F09EE8872F762FF8
:101B100005C0662371F096E8862F70E060E02AF039
:101B20009A95660F771F881FDAF7880F9695879525
:101B300097F9089557FD9058440F551F59F05F3F8E
:101B400071F04795880F97FB991F61F09F3F79F0DF
:101B500087950895121613061406551FF2CF469561
:101B6000F1DF08C0161617061806991FF1CF8695E3
:101B70007105610508940895E894BB2766277727C7
:101B8000CB0197F908950BD0C1C0B2D028F0B7D0DF
:101B900018F0952309F07AC0A8C01124EECFCADF4F
:101BA000A0F3959FD1F3950F50E0551F629FF00170
:101BB000729FBB27F00DB11D639FAA27F00DB11DC9
:101BC000AA1F649F6627B00DA11D661F829F222752
:101BD000B00DA11D621F739FB00DA11D621F839FD9
:101BE000A00D611D221F749F3327A00D611D231FAF
:101BF000849F600D211D822F762F6A2F11249F57FD
:101C000050408AF0E1F088234AF0EE0FFF1FBB1F1F
:101C1000661F771F881F91505040A9F79E3F5105BE
:101C200070F034C0AACF5F3FECF3983EDCF38695AA
:101C300077956795B795F795E7959F5FC1F7FE2B69
:101C4000880F911D9695879597F908957BDFE0F0B1
:101C50009E37D8F09639B8F49E3848F4672F782F1D
:101C60008827985FF9CF86957795679593959539ED
:101C7000D0F3B62FB1706B0F711D811D20F48795C5
:101C800077956795939508C022C077CF97F99F679E
:101C900080E870E060E00895882371F4772321F0F4
:101CA0009850872B762F07C0662311F499270DC013
:101CB0009051862B70E060E02AF09A95660F771FAE
:101CC000881FDAF7880F9695879597F908959F3FB3
:101CD00031F0915020F4879577956795B795880FE7
:101CE000911D9695879597F908959FEF80EC08953B
:101CF00000240A94161617061806090608950024EB
:101D00000A9412161306140605060895092E039464
:101D1000000C11F4882352F0BB0F40F4BF2B11F4D8
:101D200060FF04C06F5F7F4F8F4F9F4F0895FB018F
:101D3000DC0102C001900D9241505040D8F7089547
:101D4000DC0101C06D9341505040E0F70895FB0164
:101D5000DC014150504048F001900D920020C9F73D
:101D600001C01D9241505040E0F70895F894FFCF14
:101D700074656D7065726174757261006D6F7374F6
:0C1D80007572610049444C4500FFFF00F3
:00000001FF
