:0400000007EF00F016
:100008005882F7ED03F006EF05F0226EF29E3B6F83
:10001800E0CF3AF0D8CF39F047C201F048C202F039
:10002800000E046E700E036E6AEC05F00B0E0126CE
:10003800000E0222830E0124D96E000E0220DA6E11
:100048003BC0DFFF47C201F048C202F0000E046E59
:10005800700E036E6AEC05F00C0E0126000E0222EB
:10006800830E0124D96E000E0220DA6E3AC0DFFF3B
:1000780047C201F048C202F0000E046E700E036E13
:100088006AEC05F00D0E0126000E0222830E0124F3
:10009800D96E000E0220DA6E39C0DFFFD2D047C217
:1000A80001F048C202F0000E046E700E036E6AEC96
:1000B80005F0120E0126000E0222830E1B6E000EA2
:1000C8001C6E01501B2602501C2222EE47F0DECF88
:1000D8001DF0DDCF1EF0700E1D02F3CF1FF0F4CF20
:1000E80020F01E02F35020266F0E1F26000E20223D
:1000F800830E1F24D96E000E2020DA6EDF50216E89
:100108002150030DF3501B26F4501C22020E1B2411
:10011800D96E000E1C20DA6EDF50FF18E00BFF18B6
:10012800DF6E47C201F048C202F0000E046E700E86
:10013800036E6AEC05F0120E0126000E0222830EF1
:100148001B6E000E1C6E01501B2602501C2222EE54
:1001580047F0DECF1DF0DDCF1EF0700E1D02F3CF8D
:100168001FF0F4CF20F01E02F35020266F0E1F263A
:10017800000E2022830E1F24D96E000E2020DA6E76
:10018800DF50216E2150030DF3501B24D96EF4501B
:100198001C20DA6EFDCFDFFF47C201F048C202F033
:1001A800000E046E700E036E6AEC05F0120E012646
:1001B800000E0222830E1B6E000E1C6E01501B26C1
:1001C80002501C2222EE47F0DECF1DF0DDCF1EF0DC
:1001D800700E1D02F3CF1FF0F4CF20F01E02F35073
:1001E80020266F0E1F26000E2022830E1F24D96E94
:1001F800000E2020DA6EDF50216E2150030DF350DF
:100208001B26F4501C22010E1B24D96E000E1C2044
:10021800DA6EFECFDFFF47C201F048C202F0000EDF
:10022800046E700E036E6AEC05F06F0E0126000E68
:100238000222830E0124D96E000E0220DA6EDF2A14
:100248000600FC50D8A42BD747C201F048C202F0E0
:10025800000E046E700E036E6AEC05F0080E01269F
:10026800000E0222830E0124D96E000E0220DA6EDF
:1002780022C0DFFF7AEC03F007C023F008C024F0A7
:1002880009C025F00AC026F023C047F224C048F26E
:1002980025C049F226C04AF223C001F024C002F06A
:1002A800000E046E700E036E6AEC05F0080E01264F
:1002B800000E0222830E0124D96E000E0220DA6E8F
:1002C800010EDF6E000EFC6E47C201F048C202F05C
:1002D800000E046E700E036E6AEC05F00B0E01261C
:1002E800000E0222830E0124D96E000E0220DA6E5F
:1002F800DF503B6E47C201F048C202F0000E046EA8
:10030800700E036E6AEC05F00C0E0126000E022238
:10031800830E0124D96E000E0220DA6EDF503A6E89
:1003280047C201F048C202F0000E046E700E036E60
:100338006AEC05F00D0E0126000E0222830E012440
:10034800D96E000E0220DA6EDF50396ED0D005006B
:1003580047C201F048C202F0000E046E700E036E30
:100368006AEC05F06F0E0126000E0222830E0124AE
:10037800D96E000E0220DA6EDF0647C201F048C2CD
:1003880002F0000E046E700E036E6AEC05F0120E99
:100398000126000E0222830E1B6E000E1C6E0150F9
:1003A8001B2602501C2222EE47F0DECF1DF0DDCFC7
:1003B8001EF0700E1D02F3CF1FF0F4CF20F01E02C6
:1003C800F35020266F0E1F26000E2022830E1F24B6
:1003D800D96E000E2020DA6EDF50216E2150030DF9
:1003E800F3501B26F4501C22020E1B24D96E000E5B
:1003F8001C20DA6EDF501F0BFF6E47C201F048C2A7
:1004080002F0000E046E700E036E6AEC05F0120E18
:100418000126000E0222830E1B6E000E1C6E015078
:100428001B2602501C2222EE47F0DECF1DF0DDCF46
:100438001EF0700E1D02F3CF1FF0F4CF20F01E0245
:10044800F35020266F0E1F26000E2022830E1F2435
:10045800D96E000E2020DA6EDF50216E2150030D78
:10046800F3501B26F4501C22010E1B24D96E000EDB
:100478001C20DA6EDF50FE6E47C201F048C202F05F
:10048800000E046E700E036E6AEC05F0120E012663
:10049800000E0222830E1B6E000E1C6E01501B26DE
:1004A80002501C2222EE47F0DECF1DF0DDCF1EF0F9
:1004B800700E1D02F3CF1FF0F4CF20F01E02F35090
:1004C80020266F0E1F26000E2022830E1F24D96EB1
:1004D800000E2020DA6EDF50216E2150030DF350FC
:1004E8001B24D96EF4501C20DA6EDF50FD6E47C213
:1004F80001F048C202F0000E046E700E036E6AEC42
:1005080005F06F0E0126000E0222830E0124D96E1B
:10051800000E0220DA6EDF50D8A419D73AC0E0FFE7
:1005280039C0D8FF3B53F28E120043C201F044C2D7
:1005380002F0000E046E700E036E44EC05F0830E9C
:100548000124D96E000E0220DA6E07C0DEFF08C053
:10055800DEFF09C0DEFF0AC0DEFF43C201F044C26D
:1005680002F0000E046E700E036E44EC05F0040EEB
:100578000126000E0222830E0124D96E000E0220ED
:10058800DA6E0BC0DEFF0CC0DEFF0DC0DEFF0EC052
:10059800DEFF43C201F044C202F0000E046E700E8A
:1005A800036E44EC05F0080E0126000E0222830EAD
:1005B8000124D96E000E0220DA6E000EDF6E43C2EF
:1005C80001F044C202F0000E046E700E036E44EC9B
:1005D80005F0090E0126000E0222830E0124D96EB1
:1005E800000E0220DA6E0FC0DEFF10C0DDFF43C22E
:1005F80001F044C202F0000E046E700E036E44EC6B
:1006080005F0120E0126000E0222830E0124D96E77
:10061800000E0220DA6E0FC0DFFF43C201F044C2B1
:1006280002F0000E046E700E036E44EC05F0130E1B
:100638000126000E0222830E0124D96E000E02202C
:10064800DA6E0F50116E1050126E136A146A12C0CF
:1006580011F013C012F014C013F0146A1150DF6EB9
:100668000F50116E1050126E136A146A110E05D0D5
:10067800D8901432133212321132E82EF9D743C20D
:1006880001F044C202F0000E046E700E036E44ECDA
:1006980005F0140E0126000E0222830E0124D96EE5
:1006A800000E0220DA6EDF501118E00B1118DF6E11
:1006B80043C201F044C202F0000E046E700E036ED5
:1006C80044EC05F06F0E0126000E0222830E012471
:1006D800D96E000E0220DA6E010EDF6E22EE43F0B4
:1006E800DE2A000EDE22DE22DE221200000E136E4B
:1006F800000E146E000E156E000E166E010E176EAB
:10070800000E186E000E196E000E1A6E57D017C024
:1007180001F018C002F0000E046E700E036E6AEC51
:1007280005F0040E0126000E0222830E0124D96E64
:10073800000E0220DA6E13C001F014C002F0000EA1
:10074800046E700E036E6AEC05F0040E0126000EAE
:100758000222830E0124E16E000E0220E26EDE50BA
:10076800E65CDE50E658DE50E658DE50E658D8B073
:100778001FD017C001F018C002F0000E046E700EF2
:10078800036E6AEC05F0080E0126000E0222830EA5
:100798000124D96E000E0220DA6EDF50D8A408D0EA
:1007A80017C013F018C014F019C015F01AC016F0CD
:1007B800010E1726000E182219221A2222EE43F0E3
:1007C8001750DE5C1850DE581950DE581A50DE58A3
:1007D800D8B09DD713C007F014C008F015C009F0B1
:1007E80016C00AF012000600FACF27F0FBCF28F057
:1007F800E9CF29F0EACF2AF0E1CF2BF0E2CF2CF0B5
:10080800D9CF2DF0DACF2EF0F3CF2FF0F4CF30F090
:10081800F6CF31F0F7CF32F0F8CF33F0F5CF34F030
:1008280058C035F059C036F05AC037F05BC038F0C0
:10083800F2BAF2A405D096EC05F0000E09EC00F02F
:1008480038C05BF037C05AF036C059F035C058F0A0
:1008580034C0F5FF33C0F8FF32C0F7FF31C0F6FFF0
:1008680030C0F4FF2FC0F3FF2EC0DAFF2DC0D9FF30
:100878002CC0E2FF2BC0E1FF2AC0EAFF29C0E9FF34
:1008880028C0FBFF27C0FAFF5892110094EC04F02F
:100898007DEC05F0010E076E000E086E000E096E65
:1008A800000E0A6E0A0E0B6E000E0C6E000E0D6E18
:1008B800000E0E6EAE0E0F6E0A0E106E99EC02F060
:1008C800020E076E000E086E000E096E000E0A6E0C
:1008D800050E0B6E000E0C6E000E0D6E000E0E6EE9
:1008E800600E0F6E0A0E106E99EC02F0030E076E82
:1008F800000E086E000E096E000E0A6E070E0B6ED3
:10090800000E0C6E000E0D6E000E0E6E360E0F6E83
:100918000A0E106E99EC02F090EC05F000F0FED78C
:10092800000EE8CF83F0000EE8CF84F0000EE8CF89
:1009380085F0000EE8CF86F0000EE8CF87F0000EB5
:10094800E8CF88F0000EE8CF89F0000EE8CF8AF0F3
:10095800000EE8CF8BF0100EE8CF8CF00B0EE8CF2E
:100968008DF0010EE8CF43F2000EE8CF44F2000EFE
:10097800E8CF45F2000EE8CF46F2000EE8CF47F286
:10098800000EE8CF48F2000EE8CF49F2000EE8CF9B
:100998004AF23C0E016E000E026ED5EC04F0F28EA7
:1009A800120020EE18F00150D9260250DA22DE6A31
:1009B800DE6ADE6ADD6A000E066E000E056E06BE91
:1009C80006D006501EE1030E055CD8B0120005C023
:1009D80003F006C004F0D89003360436D8900336E6
:1009E8000436D8900336043603500124D96E0450D7
:1009F8000220DA6EDE6ADE6ADE6ADD6A054A062AE7
:100A0800DED7120000EE83F011EEC8F0EE6AE55072
:100A1800E150FCE1E250FAE100EE39F01F0EEE6A17
:100A2800E806FDE15890589200014AEF04F09594C9
:100A380083948CA402D0010E01D0000EFF0A00019D
:100A4800826F8247824783508219FB0B8219836E1B
:100A580000F000F000F0EDD7959283928CA202D0BE
:100A6800010E01D0000EFF0A0001816F81478350FB
:100A78008119FD0B8119836E00F000F000F0EED7AC
:100A880001500302F3CF05F0F4CF06F00150040241
:100A9800F350062602500302F350062605C001F063
:100AA80006C002F01200959083908CA002D0010E2F
:100AB80001D0000EFF0A0001806F83508019FE0BE1
:100AC8008019836E00F000F000F0EFD701500302A8
:100AD800F3CF05F0F4CF06F001500402F3500626D8
:100AE80002500302F350062605C001F006C002F0CA
:100AF8001200D59AD59CD596D550F80B0209D56E1B
:100B0800F28AF294F28C120000F000F000F0000E6D
:100B1800016E000E026E1200FD0ED76E8F0ED66E9D
:100B2800D58E1200F294FD0ED76E8F0ED66E12007F
:020000040020DA
:08000000FFFFFFFFFFFFFFFF00
:020000040030CA
:0E000000FF021F1EFF8385FF0FC00FE00F40A1
:00000001FF
